:100000000C9490000C94F4040C94CD040C94B8005F
:100010000C94B8000C94B8000C94B8000C94B80080
:100020000C94B8000C94B8000C94B8000C94B80070
:100030000C94B8000C94B8000C94B8000C94B80060
:100040000C942A0B0C94B8000C9441050C941B05DD
:100050000C94B8000C94B8000C94B8000C94B80040
:100060000C9476060C94B800A210A510A810AB1042
:10007000AE10B110B410B710BA10BD10C010C71038
:1000800045727253756E4D6F6E5475655765645445
:100090006875467269536174004572724A616E46B2
:1000A00065624D61724170724D61794A756E4A7533
:1000B0006C4175675365704F63744E6F764465632A
:1000C00000010204081020408001020408102001F1
:1000D000020408102000000000250028002B000466
:1000E00004040404040404020202020202030303DF
:1000F00003030300000000240027002A0000000082
:100100000023002600290000000008000201000072
:10011000030407000000000000000000CC1099124A
:1001200011241FBECFEFD8E0DEBFCDBF11E0A0E0AD
:10013000B1E0E4E1F9E202C005900D92AE3CB107F6
:10014000D9F723E0AEECB1E001C01D92AA3CB207A2
:10015000E1F710E0CFE8D0E004C02197FE010E9453
:100160001413CE38D107C9F70E94740B0C947D1478
:100170000C940000009769F0FC0101900020E9F761
:100180003197AF01481B590BBC018FEE91E00C94E5
:10019000E20280E090E00895CF93DF930E94BA00DE
:1001A000EC018CEA91E00E94BA008C0F9D1FDF9158
:1001B000CF9108958F929F92AF92BF92CF92DF928C
:1001C000EF92FF92CF93DF934B01AA24BB24F82D2B
:1001D000C52ED62EE72EFF24AC2DE42F2091DF0272
:1001E000222361F0829E40011124F92D2C9D600193
:1001F0001124AD2D249FE0011124ED2F3091E50253
:10020000B091E202E090E002F090E1023B1308C0FE
:100210009C01220F331F820F931F8E0D9F1D19C04B
:10022000880F991F880F991F8E0D9F1D472F5527E7
:1002300066277727EC01C30FD11D222349F030E058
:10024000249F7001259FF00C349FF00C11244F2D3A
:1002500048832091E202EC01C20FD11DF883209166
:10026000E302EC01C20FD11DA8832091E402DC015E
:10027000A20FB11DEC93DF91CF91FF90EF90DF9033
:10028000CF90BF90AF909F908F9008950F931F9342
:10029000CF93DF93CDB7DEB729970FB6F894DEBFC3
:1002A0000FBECDBF0E94050B0091E6021091E70240
:1002B0002091E8023091E902DC01CB01801B910B17
:1002C000A20BB30B8C329140A105B10558F3F89401
:1002D0008091DC029091DD029A838983A091E002F3
:1002E000B091E102FD0131968C9189878091D8020D
:1002F000A091EA02B091EB02882309F417C11B8296
:10030000AB32B10509F058C09BB18091EC02982B3B
:1003100098879BB1809589238F838F818C83898572
:1003200087FF02C088858C8358856F8149853C8111
:100330002B8189819A815BB9262F3BB900C046FD8C
:10034000252F6BB900C05BB9362F2BB900C045FD16
:10035000352F6BB900C05BB9262F3BB900C044FDF7
:10036000252F6BB900C05BB9362F2BB900C043FDF8
:10037000352F6BB900C05BB9262F3BB900C042FDD9
:10038000252F6BB900C05BB9362F2BB900C041FDDA
:10039000352F6BB900C05BB9262F3BB900C040FDBB
:1003A000252F6BB901975BB9362F2BB9419147FDCA
:1003B000352F6BB901F6B6C0A532B10509F058C0AA
:1003C00095B18091EC02982B988795B180958923FF
:1003D0008F838F818C83898587FF02C088858C837A
:1003E00058856F8149853C812B8189819A8155B9D6
:1003F000262F35B900C046FD252F65B900C055B977
:10040000362F25B900C045FD352F65B900C055B957
:10041000262F35B900C044FD252F65B900C055B958
:10042000362F25B900C043FD352F65B900C055B939
:10043000262F35B900C042FD252F65B900C055B93A
:10044000362F25B900C041FD352F65B900C055B91B
:10045000262F35B900C040FD252F65B9019755B944
:10046000362F25B9419147FD352F65B901F65AC0A0
:10047000989709F08BC098B18091EC02982B9887DF
:1004800098B1809589238F838F818C83898587FF9D
:1004900002C088858C8358856F8149853C812B817A
:1004A00089819A8158B9262F38B900C046FD252F79
:1004B00068B900C058B9362F28B900C045FD352F9E
:1004C00068B900C058B9262F38B900C044FD252F9F
:1004D00068B900C058B9362F28B900C043FD352F80
:1004E00068B900C058B9262F38B900C042FD252F81
:1004F00068B900C058B9362F28B900C041FD352F62
:1005000068B900C058B9262F38B900C040FD252F62
:1005100068B9019758B9362F28B9419147FD352F51
:1005200068B901F649873C832B832EC09C9180914A
:10053000EC02982B98879C91809589238F838F81DB
:100540008E8388E08D8358856F8149853D812E811A
:1005500089819A815C9347FD252F2C93262F3A950C
:1005600031F0441F6C9300C000C000C0F3CF6C9307
:10057000000038E04191019769F7B093EB02A09336
:10058000EA0249873D832E839A83898378940E9467
:10059000050B6093E6027093E7028093E802909364
:1005A000E90229960FB6F894DEBF0FBECDBFDF91EA
:1005B000CF911F910F910895682F8FEE91E00C94C9
:1005C00075030895CF92DF92EF92FF920F931F93DE
:1005D000CF93DF936C017A018B01C0E0D0E0CE15A0
:1005E000DF0581F0D8016D918D01D601ED91FC916F
:1005F0000190F081E02DC6010995892B11F021961B
:10060000EECF7E01C701DF91CF911F910F91FF9037
:10061000EF90DF90CF900895FC01538D448D252FEE
:1006200030E0842F90E0821B930B541710F0CF968C
:10063000089501970895FC01918D828D981761F0BE
:10064000828DDF01A80FB11D5D968C91928D9F5F09
:100650009F73928F90E008958FEF9FEF0895FC01B4
:10066000918D828D981731F0828DE80FF11D858D67
:1006700090E008958FEF9FEF0895FC01918D228DFA
:10068000892F90E0805C9F4F821B91098F7399277F
:1006900008958FEE91E00E943D0321E0892B09F43B
:1006A00020E0822F0895FC01848DDF01A80FB11D89
:1006B000A35ABF4F2C91848D90E001968F73992798
:1006C000848FA689B7892C93A089B1898C91837076
:1006D00080648C93938D848D981306C00288F3896F
:1006E000E02D80818F7D80830895EF92FF920F939C
:1006F0001F93CF93DF93EC0181E0888F9B8D8C8DCE
:10070000981305C0E889F989808185FD26C0F62EF9
:100710000B8D10E00F5F1F4F0F731127E02E8C8D94
:10072000E8120CC00FB607FCFACFE889F98980817E
:1007300085FFF5CFCE010E945303F1CF8B8DFE01D3
:10074000E80FF11DE35AFF4FF0829FB7F8940B8F2B
:10075000EA89FB89808180620AC09FB7F894EE899C
:10076000FF896083E889F989808183708064808350
:100770009FBF81E090E0DF91CF911F910F91FF909B
:10078000EF900895CF93DF93EC01888D8823C9F013
:10079000EA89FB89808185FD05C0A889B9898C918A
:1007A00086FD0FC00FB607FCF5CF808185FFF2CF25
:1007B000A889B9898C9185FFEDCFCE010E945303A2
:1007C000E7CFDF91CF91089580E090E0892B29F069
:1007D0000E94490381110C940000089585ED8093D7
:1007E000BC008091BC0084FDFCCF1092D401089520
:1007F00040916B03262F30E0240F311D213231054B
:10080000DCF42091D4012430C9F4FC0180E090E0B4
:10081000861758F430916B032191DC01A55BBC4F26
:10082000A30FB11D2C930196F3CF80916B03680F3A
:1008300060936B0380E0089581E0089582E008955D
:10084000089508950895E091D8018091D701E8179F
:1008500030F4F0E0E55DFC4F808190E008958FEF8B
:100860009FEF08959091D8018091D701981750F487
:10087000E92FF0E0E55DFC4F208130E09F5F909331
:10088000D80102C02FEF3FEFC90108958091D70131
:1008900090E02091D801821B91090895CF93DF93B6
:1008A000CB01EA01642F0E94F803CE01DF91CF91C2
:1008B0000895CF93DF931F92CDB7DEB7698361E0D0
:1008C000CE0101960E94F80381E090E00F90DF9145
:1008D000CF910895089580E090E008950E947814E3
:1008E0002FB7F8948091B6039091B703A091B80305
:1008F000B091B9032FBF4091270350912803609115
:10090000290370912A03841B950BA60BB70B813921
:100910009140A105B10508F43FC08FEA91E00E9423
:10092000CC0080913B018F5F80933B0180913B0124
:100930008F3010F010923B01E0913B0184E0E89F82
:10094000F0011124E456FD4F80819181A281B38191
:100950008093980290939902A0939A02B0939B027D
:1009600060913B0180E090E00E94B11281E08093B1
:100970003A012FB7F8948091B6039091B703A091F4
:10098000B803B091B9032FBF809327039093280336
:10099000A0932903B0932A0308951F920F920FB6D4
:1009A0000F9211242F933F934F935F936F937F93F5
:1009B0008F939F93AF93BF93EF93FF93E0910201C7
:1009C000F09103010995FF91EF91BF91AF919F9134
:1009D0008F917F916F915F914F913F912F910F90E8
:1009E0000FBE0F901F9018951F920F920FB60F9287
:1009F00011242F933F934F935F936F937F938F9324
:100A00009F93AF93BF93EF93FF93E0910001F09119
:100A100001010995FF91EF91BF91AF919F918F9146
:100A20007F916F915F914F913F912F910F900FBEEA
:100A30000F901F9018951F920F920FB60F921124CE
:100A40002F933F934F935F936F937F938F939F93D6
:100A5000AF93BF93EF93FF938FEE91E00E94530308
:100A6000FF91EF91BF91AF919F918F917F916F9186
:100A70005F914F913F912F910F900FBE0F901F905C
:100A800018951F920F920FB60F9211242F938F93E8
:100A90009F93EF93FF93E091FF01F091000280811B
:100AA000E0910502F091060282FD12C090818091D2
:100AB00008028F5F8F7320910902821751F0E09135
:100AC0000802F0E0E151FE4F958F8093080201C0CB
:100AD0008081FF91EF919F918F912F910F900FBE89
:100AE0000F901F9018954F925F926F927F928F9206
:100AF0009F92AF92BF92CF92DF92EF92FF920F93AD
:100B00001F93CF93DF934B015C018091B2039091CF
:100B1000B303A091B403B091B50388159905AA0554
:100B2000BB0509F4D2C08CE3C82ED12CE12CF12CEA
:100B3000C501B401A70196010E94D3126093BA03C4
:100B4000CA01B901A70196010E94D3126093BB03A9
:100B5000C501B40120E13EE040E050E00E94D31224
:100B6000CA01B90128E130E040E050E00E94D31210
:100B70006093BC03C501B40120E831E541E050E0D9
:100B80000E94D31269017A01CA01B9016C5F7F4FDB
:100B90008F4F9F4F27E030E040E050E00E94D3129B
:100BA0006F5F6093BD03412C512C320140E004E69D
:100BB00010E0C0E9D1E0242F30E02E54384FF90185
:100BC000E370FF27309789F4C901B8010E94BF1272
:100BD000892B31F4C901BE010E94BF12892B29F46F
:100BE0008EE691E0A0E0B0E004C08DE691E0A0E0E8
:100BF000B0E0480E591E6A1E7B1ED301C201AA270F
:100C0000BB27C816D906EA06FB0610F04F5FD3CF04
:100C10004093C003309799F4C90164E670E00E94E4
:100C2000BF12892B39F4C90160E971E00E94BF123B
:100C3000892B29F48EE691E0A0E0B0E004C08DE6B7
:100C400091E0A0E0B0E0481A590A6A0A7B0AC41889
:100C5000D508E608F708C90164E670E00E94BF12F3
:100C6000EC01C90160E971E00E94BF12AEE7B1E09A
:100C700020E0213039F4309749F4209729F4009787
:100C800029F402C04C9103C04DE101C04CE150E099
:100C900060E070E0C416D506E606F70640F0C41A18
:100CA000D50AE60AF70A2F5F11962C3011F72F5F4D
:100CB0002093BF03C394C092BE038092B20390926C
:100CC000B303A092B403B092B503DF91CF911F910B
:100CD0000F91FF90EF90DF90CF90BF90AF909F90DB
:100CE0008F907F906F905F904F9008951F920F921A
:100CF0000FB60F9211242F933F934F935F936F93EF
:100D00007F938F939F93AF93BF93EF93FF938091C4
:100D1000B900887F803609F49CC068F5883209F4F0
:100D20005BC090F4803109F454C038F4882309F48E
:100D3000F6C0883009F44DC0F6C0883109F44CC0C3
:100D4000803209F45DC0EFC0803409F468C048F413
:100D5000803309F455C0883309F0E5C080938E03D1
:100D6000D8C0803509F44FC0883509F45DC0883497
:100D700009F0D9C0D6C0883909F4C7C0A8F48837AB
:100D800009F467C038F4883609F463C0803709F481
:100D900060C0C9C0883809F4B8C0803909F45FC0A0
:100DA000803809F0C0C05BC0803B09F486C038F4CD
:100DB000803A09F466C0883A09F47FC0B4C0803C28
:100DC00009F4A7C0883C09F4A4C0883B09F48AC090
:100DD000AAC08091B10310C09091B0038091AF037D
:100DE000981770F5E091B00381E08E0F8093B00307
:100DF000F0E0E157FC4F80818093BB0085EC86C01A
:100E000080938E038EC0E091B00381E08E0F8093BB
:100E1000B0038091BB00F0E0E157FC4F80839091DC
:100E2000B0038091AF036EC0E091B00381E08E0FFC
:100E30008093B0038091BB00F0E0E157FC4F8083CA
:100E40008091D30181116DC081E08093D20184EA49
:100E500061C083E08093D40110928D03CFCF809145
:100E60008D03803208F051C0E0918D0381E08E0F38
:100E700080938D038091BB00F0E0E359FC4F8083A9
:100E8000BDCF85EC8093BC001092D40180918D037E
:100E9000803230F4E0918D03F0E0E359FC4F108292
:100EA00060918D0370E0E091CE01F091CF018DE66D
:100EB00093E0099510928D0336C084E08093D401AD
:100EC00010926C0310926B03E091D001F091D1016C
:100ED000099580916B03811105C081E080936B03BC
:100EE00010924B03E0916C0381E08E0F80936C03B2
:100EF000F0E0E55BFC4F80818093BB0090916C0338
:100F000080916B03981708F479CF85E88093BC0033
:100F10000AC085EC8093BC001092D40104C01092EA
:100F20008E030E94EE03FF91EF91BF91AF919F91CD
:100F30008F917F916F915F914F913F912F910F9082
:100F40000FBE0F901F901895CF93DF93EC018AE3AB
:100F50000E94DC02CA30D1051CF480E30E94DC024E
:100F6000BE01DD0F880B990BDF91CF910C942F09F7
:100F7000CF93DF93EC010A971CF480E30E94DC021C
:100F8000BE01DD0F880B990BDF91CF910C942F09D7
:100F9000CF93DF93C0E0D0E08091DA029091DB0242
:100FA000C817D90730F440E050E0BA01CE010E94E2
:100FB000DA002196CE36D10579F7DF91CF910895E9
:100FC000EF92FF920F931F93CF93DF93FC01E0808A
:100FD0000181C0E0D0E010E0F12C0C171D07B4F047
:100FE000409198025091990260919A0270919B02EF
:100FF000CE018E0D9F1D2091DA023091DB02821707
:10100000930710F40E94DA002196E7CFDF91CF9189
:101010001F910F91FF90EF900895833081F028F495
:10102000813099F08230A1F008958730A9F088309E
:10103000B9F08430D1F4809180008F7D03C080911D
:1010400080008F7780938000089584B58F7702C0E9
:1010500084B58F7D84BD08958091B0008F7703C0E3
:101060008091B0008F7D8093B00008952F923F92C1
:101070004F925F926F927F928F929F92AF92BF92A8
:10108000CF92DF92EF92FF920F931F93CF93DF9354
:10109000CDB7DEB72D970FB6F894DEBF0FBECDBF2C
:1010A00058877A87242E862E41110CC083942CE019
:1010B000281550F43FEFC31AD30A332433948824FD
:1010C000839404C0342E02C0332433948A858D87E0
:1010D000EEE4EC0DAE2FB0E020E833E341EE51E05A
:1010E0000E9430132B013C0122EB37E06D01E4E656
:1010F000F0E000E911E0C901825B97408C159D0585
:10110000DCF4C90183709927892B99F4C901BF01C7
:101110000E94BF12892B31F4C901B8010E94BF128D
:10112000892B39F4A0E84A0EA1E55A1EA1E06A1EF7
:10113000711C2F5F3F4FDFCFBEE4CB1AB8EFDB0A45
:10114000C60164E670E00E94BF127C01C60160E93E
:1011500071E00E94BF125C010EE711E0E1E0F0E0F7
:10116000912C23E0C222DD24E815F90534F5E230A4
:10117000F10589F4C114D10471F4E114F10419F4F6
:10118000A114B10441F430E8430E3BE3531E36E2B0
:10119000631E711C0EC0D8018C91A82FB0E020E80E
:1011A00031E541E050E00E943013460E571E681EA4
:1011B000791E31960F5F1F4FD7CFBD852B2F30E0A3
:1011C000A0E1BEE00E941A13460E571E681E791E4B
:1011D000088510E0C301B2010E9473058091BD0330
:1011E0009801281B3109C901079667E070E00E9449
:1011F000BF12232D30E02150310967E0629FA0012A
:10120000639F500D1124DC01A40FB51F20E831E5C8
:1012100041E050E00E943B13640D751D861D971D33
:10122000211004C060587A43894091092D960FB669
:10123000F894DEBF0FBECDBFDF91CF911F910F910C
:10124000FF90EF90DF90CF90BF90AF909F908F90E6
:101250007F906F905F904F903F902F9008958F9266
:101260009F92AF92BF92CF92DF92EF92FF920F9335
:101270001F93CF93DF93CDB7DEB7A1970FB6F89446
:10128000DEBF0FBECDBF6B017C0197FF29C08DE291
:101290000E94DC028C0122273327A9012C193D0969
:1012A0004E095F0919A2CE0181967C019AE0892E30
:1012B000912CA12CB12CCA01B901A50194010E9465
:1012C000D312605DF70162937F012115310541055D
:1012D000510589F7CF010E94BA00800F911F1DC0F0
:1012E0009B01AC0119A28E010F5D1F4F8AE0C82E31
:1012F000D12CE12CF12CCA01B901A70196010E9461
:10130000D312605DF80162938F012115310541050B
:10131000510589F7CF010E94BA00A1960FB6F89443
:10132000DEBF0FBECDBFDF91CF911F910F91FF9018
:10133000EF90DF90CF90BF90AF909F908F900895E7
:101340008F929F92AF92BF92CF92DF92EF92FF92D5
:101350000F931F93CF93DF936C01E090F702F0900F
:10136000F8020091F9021091FA022091FB023091EB
:10137000FC024091FD025091FE026091FF027091CB
:10138000000380910103909102030E943608C7EF89
:10139000D2E068A379A38AA39BA3E3E0F3E0E08013
:1013A000F1800281138124813581468157816085D6
:1013B0007185828593850E9436086B017C016CA340
:1013C0007DA38EA39FA3AE89BF892CE330E00E944A
:1013D000291308A119A12AA13BA148015901861A84
:1013E000970AA80AB90A888E998EAA8EBB8EAA85FA
:1013F000BB852CE330E00E942913C61AD70AE80AFD
:10140000F90ACC8EDD8EEE8EFF8EDF91CF911F918B
:101410000F91FF90EF90DF90CF90BF90AF909F9093
:101420008F900895CF93DF93282F30E0F901E95F83
:10143000FE4F8491F901EF53FF4FD491F901E1522E
:10144000FF4FC491CC2391F081110E940D08EC2F25
:10145000F0E0EE0FFF1FE350FF4FA591B491EC9128
:10146000ED2381E090E021F480E002C080E090E094
:10147000DF91CF9108951F93CF93DF93282F30E012
:10148000F901E95FFE4F8491F901EF53FF4FD491C9
:10149000F901E152FF4FC491CC23C1F0162F811105
:1014A0000E940D08EC2FF0E0EE0FFF1FEB52FF4FF4
:1014B000A591B4919FB7F894111104C08C91D09567
:1014C000D82302C0EC91DE2BDC939FBFDF91CF913C
:1014D0001F910895EF92FF920F931F93CF93DF9385
:1014E000E82EF62EC7E0D0E0042F10E0B8010C2E55
:1014F00002C0759567950A94E2F761708E2D0E947F
:101500003B0A61E08F2D0E943B0A60E08F2D0E9414
:101510003B0A219758F7DF91CF911F910F91FF90D0
:10152000EF900895CF93DF9390E0FC01EF53FF4FCE
:101530002491FC01E152FF4F8491882361F190E0F6
:10154000880F991FFC01ED50FF4FC591D491FC010C
:10155000EB52FF4FA591B491611109C09FB7F89468
:101560008881209582238883EC912E230BC06230E2
:1015700061F49FB7F8948881322F30958323888354
:10158000EC912E2B2C939FBF06C08FB7F894E88167
:101590002E2B28838FBFDF91CF91089560E080913B
:1015A000EE020E94920A61E08091ED020E943B0AE5
:1015B0008091EE020E94120A0197D1F360E08091BF
:1015C000ED020C943B0A1F93CF93DF93182FCDEEBF
:1015D000D2E061E089810E94920A61E089810E94E3
:1015E0003B0A61E088810E943B0A60E089810E9499
:1015F0003B0A60E088810E943B0A412F6881898113
:10160000DF91CF911F910C946A0A3FB7F8948091B3
:10161000C2039091C303A091C403B091C50326B542
:10162000A89B05C02F3F19F00196A11DB11D3FBF1A
:10163000BA2FA92F982F8827820F911DA11DB11DA8
:10164000BC01CD0143E0660F771F881F991F4A95A3
:10165000D1F708951F920F920FB60F9211242F9376
:101660003F938F939F93AF93BF938091B6039091D5
:10167000B703A091B803B091B9033091C10326E03C
:10168000230F2D3720F40296A11DB11D05C029E8B6
:10169000230F0396A11DB11D2093C1038093B603B0
:1016A0009093B703A093B803B093B9038091C2039A
:1016B0009091C303A091C403B091C5030196A11DED
:1016C000B11D8093C2039093C303A093C403B0934E
:1016D000C503BF91AF919F918F913F912F910F9033
:1016E0000FBE0F901F901895789484B5826084BDCA
:1016F00084B5816084BD85B5826085BD85B5816016
:1017000085BD80916E00816080936E001092810093
:10171000809181008260809381008091810081604E
:10172000809381008091800081608093800080910F
:10173000B10084608093B1008091B000816080939B
:10174000B00080917A00846080937A0080917A0062
:10175000826080937A0080917A008E7F80937A00F5
:1017600080917A00806880937A001092C100E091A5
:10177000FF01F0910002C2E0C083E091FB01F09113
:10178000FC011082E091FD01F091FE0188E0808370
:1017900010920702E0910302F091040286E0808338
:1017A000E0910102F0910202808180618083E091EA
:1017B0000102F0910202808188608083E091010241
:1017C000F0910202808180688083E0910102F091B3
:1017D000020280818F7D80838AE891E00E94CC00A4
:1017E0001092D8011092D7011092D6011092D50113
:1017F0001092D401D1E0D093D3011092D20161E0D4
:1018000082E10E943B0A61E083E10E943B0A8091F1
:10181000B9008E7F8093B9008091B9008D7F80934D
:10182000B90080E28093B80085E48093BC0080E238
:1018300094E09093D1018093D00181E294E0909361
:10184000CF018093CE018091EE028231F1F480913C
:10185000ED028331D1F4D093F60261E082E10E947F
:101860003B0A61E083E10E943B0A8091B9008E7FD0
:101870008093B9008091B9008D7F8093B900C093A7
:10188000B80085E08093BC0007C01092F60261E0CA
:101890008091ED020E94920A60E082E00E94920A2A
:1018A00080E794E0909301018093000180916900AA
:1018B000836080936900E89A80E090E00E94A9121A
:1018C00080933B0180913B018F3010F010923B01DF
:1018D000E0913B0124E0E29FF0011124E456FD4F2A
:1018E00080819181A281B381809398029093990223
:1018F000A0939A02B0939B028091DE0287FD08C0FC
:1019000061E00E94920A60E08091DE020E943B0A40
:1019100081E08093D9022091DF02222339F1C09126
:10192000E002D091E102215051F030E040E050E07F
:101930006FEF7FEF80E090E00E94F51202C020E0A0
:1019400030E0FE014091DC025091DD02CF018C1BA2
:101950009D0B8417950740F44081429FC001439F2F
:10196000900D11249193EECF1092DF020E94C807D0
:101970008091E0029091E102892B11F00E944601D2
:1019800089E991E00E94CC0081E080933A015DE614
:10199000252E3324339463E0462E63E0562E77EFF2
:1019A000672E72E0772EE4EE8E2EF4EC9F2E06EF7B
:1019B00012E02FB7F8948091B6039091B703A091ED
:1019C000B803B091B9032FBF4091EB015091EC01E6
:1019D0006091ED017091EE01841B950BA60BB70B86
:1019E00081339547A105B10508F0A1C180913A0165
:1019F00081119DC199C1A33008F0D6C2829DB0016A
:101A0000839D700D929D700D1124615973428D5C00
:101A100097409695879596958795860F971F9C0179
:101A2000240F351FA8E1B0E00E941A139B01AC01FE
:101A30002F0F311D411D511DACE3B0E00E9430134A
:101A40009B01AC012E0F311D411D511D0E94301311
:101A50009B01AC012F0D311D411D511D69017A0102
:101A600030E8C31A3CEBD30A32E9E30A37ECF30A55
:101A7000C701B6010E947305C091C003D0E0CE54E7
:101A8000D84F60910F0370911003809111039091D2
:101A900012030E9473058091C00390E08E54984F0A
:101AA0008C179D0759F0C701B6010E9473058091FC
:101AB000C00390E08E54984F0E94A009C701B60160
:101AC0000E947305C091C003D0E0CE54D84F6091FE
:101AD0000F037091100380911103909112030E94E3
:101AE00073058091C00390E08E54984F8C179D072A
:101AF00059F0C701B6010E9473058091C00390E0C0
:101B00008E54984F0E94A0094091130350911403E2
:101B1000609115037091160380910F03909110034B
:101B2000A0911103B0911203481759076A077B0768
:101B300009F043C25092EA014092E901A0910D03DD
:101B4000B0910E032CE330E00E942913C60ED71E7D
:101B5000E81EF91EC092E501D092E601E092E7018D
:101B6000F092E801A090E901B090EA01C701B60146
:101B70000E9473058091BC0390E00E94B807C701E2
:101B8000B6010E9473058091BB0390E00E94A407F8
:101B9000C701B6010E9473058091BA0390E00E94CC
:101BA000A40780E20E94DC02C701B6010E9473050F
:101BB0008091BD03982F990F890FC9EDD1E0DE0107
:101BC00020E030E090E0FC01E20FF31FE058FF4F0F
:101BD000E491ED932F5F3F4F23303105A1F7109231
:101BE000DC0189ED91E00E94BA0080E20E94DC02F3
:101BF000C701B6010E9473058091BE0390E00E9468
:101C0000B80780E20E94DC02C701B6010E9473059A
:101C10002091BF0343E0249F9001112480E090E0D5
:101C2000FC01E20FF31FE756FF4FE491E9930196A1
:101C300083309105A9F71092DC0189ED91E00E94B3
:101C4000BA0080E20E94DC02C701B6010E9473055F
:101C50006091C00370E06E54784F072E000C880B23
:101C6000990B0E942F0980E20E94DC02C5010E94AC
:101C7000BA008CEA91E00E94BA00C090E501D090D1
:101C8000E601E090E701F090E801C701B6010E948B
:101C90007305C091BC03D0E0D093E401C093E3018D
:101CA000C701B6010E947305E090BB03F12C0E94AE
:101CB000C80755E0E516F1040CF0A4C188E391E0F3
:101CC0000E94E00786E391E00E94E00784E391E050
:101CD0000E94E007209709F45AC2CD30D1050CF0DC
:101CE0002C97FE013197EC30F10508F427C2809162
:101CF000E0029091E102892B11F00E9446012FB77A
:101D0000F8948091B6039091B703A091B803B09175
:101D1000B9032FBF8093EB019093EC01A093ED01E9
:101D2000B093EE0110923A010E94E40342CE8091FA
:101D3000F602882309F43FC08092BC008091BC0069
:101D400087FFFCCF80ED8093BB009092BC00809118
:101D5000BC0087FFFCCF1092BB009092BC0080912A
:101D6000BC0087FFFCCF8092BC008091BC0087FF45
:101D7000FCCF81ED8093BB009092BC008091BC00B1
:101D800087FFFCCFEFEEF2E09092BC008091BC00A8
:101D900087FFFCCF8091BB0081930E171F07A1F72F
:101DA00044E84093BC008091BC0087FFFCCF54E91D
:101DB0005093BC008BC080ED0E94E30A0E94CE0AC3
:101DC00061E08091EE020E94920A40E06091ED0293
:101DD0008091EE020E946A0A0E94CE0A81ED0E9462
:101DE000E30A0E94CE0A4FEEC42E42E0D42EC0E099
:101DF000D0E060E08091EE020E94920A37E0E32E8C
:101E0000F12CB12C61E08091ED020E943B0A80919F
:101E1000EE020E94120A99270E2C01C0880F0A9424
:101E2000EAF7B82A60E08091ED020E943B0A81E067
:101E3000E81AF10838F7F601B1926F0161E080917C
:101E4000EE02C630D10549F00E94920A60E080910E
:101E5000ED020E943B0A60E008C00E94920A60E026
:101E60008091ED020E943B0A61E08091EE020E94A7
:101E70003B0A61E08091ED020E943B0A60E08091A4
:101E8000ED020E943B0A60E08091EE020E94920AFD
:101E90002196C730D10509F0ACCF61E08091EE0208
:101EA0000E94920A60E08091EE020E943B0A61E08B
:101EB0008091ED020E943B0A61E08091EE020E9457
:101EC0003B0A60E08091EE020E94920A8091EF024C
:101ED000C82FC695C695C695CE709C2F990F990FA1
:101EE000C90F8F70FC2EF80E8091F002E82FE69556
:101EF000E695E695EE709E2F990F990FE90F8F707A
:101F0000E80F8091F102F82FFF7087FF08C085FB72
:101F1000882780F92CE0289FF00D112409C08073D8
:101F2000869586958695982F990F990F890FF80FAA
:101F30005091F302352F3695369536953E70432FE6
:101F4000440F440F340F8091F402A82FA695A69554
:101F5000A695AE709A2F990F990FA90F8F70A80FA1
:101F60008091F502982F92959F708F704AE0949F10
:101F7000800D112490E08053984F5F70530F452FD0
:101F800050E0B0E06A2F70E0615071092B2F30E013
:101F9000261737070CF02FCD22583E4FE901288134
:101FA000420F511DBF5FF2CF9C0123703327232BBB
:101FB00009F024CD4F5F5F4F21CD84179507A60709
:101FC000B70760F4C816D906EA06FB0608F4B2CDD6
:101FD000C416D506E606F70660F0ACCDC416D506E5
:101FE000E606F70630F0C816D906EA06FB0608F43E
:101FF000A1CD7092EA016092E901A0910103B09134
:102000000203A0CD8AE0E816F1045CF486E391E0D7
:102010000E94E00782E391E00E94E00780E391E004
:102020000EC09FE0E916F1047CF486E391E00E9483
:10203000E00782E391E00E94E0078CE291E00E94D9
:10204000E0078EE291E044CEE4E1EE16F1043CF4C8
:1020500088E391E00E94E0078AE291E051C0F9E153
:10206000EF16F1041CF48AE291E024C02EE1E2169E
:10207000F1047CF488E291E00E94E00786E291E0BE
:102080000E94E00784E291E00E94E00782E291E092
:1020900051C033E2E316F1043CF488E391E00E947E
:1020A000E00782E291E02CC048E2E416F1045CF41F
:1020B00082E291E00E94E00782E391E00E94E00763
:1020C00080E391E00EC05DE2E516F1047CF482E26B
:1020D00091E00E94E00782E391E00E94E0078CE239
:1020E00091E00E94E0078EE291E024C082E3E816CE
:1020F000F1045CF488E391E00E94E00780E291E063
:102100000E94E00784E391E015C097E3E916F1042B
:102110001CF48EE191E002C088E291E00E94E007A9
:1021200086E291E00E94E00784E291E00E94E007ED
:1021300086E391E00E94E0072196CFCDEC5CFF4F53
:102140000C9414138CE191E024C08AE191E021C049
:1021500088E191E01EC086E191E01BC084E191E03E
:1021600018C082E191E015C080E191E012C08EE0DC
:1021700091E00FC08CE091E00CC08AE091E009C0D2
:1021800088E091E00E94E00786E091E002C084E0F0
:1021900091E00E94E007ABCD0F931F93CF93DF93A5
:1021A000CDB7DEB768970FB6F894DEBF0FBECDBFD0
:1021B0001092F2011092F10188EE93E0A0E0B0E0FD
:1021C0008093F3019093F401A093F501B093F6018D
:1021D00026E431E03093F0012093EF0125EC30E06C
:1021E0003093FC012093FB0124EC30E03093FE019E
:1021F0002093FD0120EC30E0309300022093FF019A
:1022000021EC30E0309302022093010222EC30E016
:10221000309304022093030226EC30E03093060250
:1022200020930502109208021092090210920A02ED
:1022300010920B0210928F0210928E0280939002E5
:1022400090939102A0939202B093930288E591E05B
:1022500090938D0280938C028CE0E2E7F1E0DE0146
:102260001D9601900D928A95E1F78CE0E6E6F1E08B
:10227000DE01119601900D928A95E1F78CE0FE0146
:102280003D96A7EFB2E001900D928A95E1F78CE0C0
:10229000FE013196A3E0B3E001900D928A95E1F73B
:1022A00082E18093EE0283E18093ED028EED97E070
:1022B000909325038093240381E0809323038093EC
:1022C000220310921F03109220031092210393E027
:1022D000909326031092D9021092DF021092E60228
:1022E0001092E7021092E8021092E9028093E50250
:1022F0008093E2021092E30292E09093E4028093D2
:10230000D8020AE411E01093DD020093DC028AE4B3
:1023100091E00E9457139093E1028093E0020097AE
:1023200069F0FC019801119221503040E1F78EE6EE
:1023300090E09093DB028093DA0208C01092DD02F5
:102340001092DC021092DB021092DA028CE0809391
:10235000DE028091D902882341F061E08CE00E9486
:10236000920A60E08CE00E943B0AEBEEF0E0E49120
:10237000F0E0EE0FFF1FEB52FF4F85919491909389
:10238000EB028093EA02EDECF0E0E491E093EC02E2
:1023900080E09FE7AFE7B0E080939C0290939D02BE
:1023A000A0939E02B0939F0280E09AEFAAEFB0E064
:1023B0008093A0029093A102A093A202B093A302E3
:1023C0008FE790E0DC018093A4029093A502A09394
:1023D000A602B093A7028AEF90E0DC018093A802E6
:1023E0009093A902A093AA02B093AB028FE79FE754
:1023F000A0E0B0E08093AC029093AD02A093AE0257
:10240000B093AF028AEF9AEFA0E0B0E08093B00201
:102410009093B102A093B202B093B30280E090E037
:10242000AFE7B0E08093B4029093B502A093B602F8
:10243000B093B70280E090E0AFEFB0E08093B802D5
:102440009093B902A093BA02B093BB0280E09FE7D9
:10245000A0E0B0E08093BC029093BD02A093BE02C6
:10246000B093BF0280E09AEFA0E0B0E08093C0029A
:102470009093C102A093C202B093C3028FE790E091
:10248000A0E0B0E08093C4029093C502A093C6027E
:10249000B093C7028FEF90E0A0E0B0E08093C80255
:1024A0009093C902A093CA02B093CB028FE79FE733
:1024B000AFE7B0E08093CC029093CD02A093CE0220
:1024C000B093CF028AEF9AEFAAEFB0E08093D002E8
:1024D0009093D102A093D202B093D30280E094E60D
:1024E000AAEFB0E08093D4029093D502A093D602D5
:1024F000B093D702E0913B0134E0E39FF001112457
:10250000E456FD4F80819181A281B381809398022E
:1025100090939902A0939A02B0939B0268960FB68B
:10252000F894DEBF0FBECDBFDF91CF911F910F9109
:1025300008958091E0029091E102009711F00E94CD
:10254000EF138091DE0287FD03C060E00C94920AD5
:102550000895F999FECF92BD81BDF89A992780B56B
:102560000895262FF999FECF1FBA92BD81BD20BDD7
:102570000FB6F894FA9AF99A0FBE0196089597FB50
:10258000072E16F4009407D077FD09D00E9443135C
:1025900007FC05D03EF4909581959F4F0895709566
:1025A00061957F4F0895A1E21A2EAA1BBB1BFD0166
:1025B0000DC0AA1FBB1FEE1FFF1FA217B307E40722
:1025C000F50720F0A21BB30BE40BF50B661F771F7A
:1025D000881F991F1A9469F760957095809590955A
:1025E0009B01AC01BD01CF010895052E97FB1EF4A0
:1025F00000940E940C1357FD07D00E94D31207FCD1
:1026000003D04EF40C940C135095409530952195C1
:102610003F4F4F4F5F4F089590958095709561950E
:102620007F4F8F4F9F4F0895EE0FFF1F0590F4913E
:10263000E02D0994A29FB001B39FC001A39F700D2C
:10264000811D1124911DB29F700D811D1124911DBA
:1026500008950E941A13B7FF0895821B930B0895E3
:102660000E941A13A59F900DB49F900DA49F800DFA
:10267000911D11240895B7FF0C9430130E9430135C
:10268000821B930B0895AA1BBB1B51E107C0AA1F15
:10269000BB1FA617B70710F0A61BB70B881F991F03
:1026A0005A95A9F780959095BC01CD0108950F9397
:1026B0001F93CF93DF938230910510F482E090E076
:1026C000E091C803F091C90320E030E0A0E0B0E061
:1026D000309719F1408151810281138148175907C0
:1026E000C8F08417950769F4109731F012960C938F
:1026F000129713961C9327C00093C8031093C90325
:1027000022C02115310519F04217530718F49A0118
:10271000BD01EF01DF01F801DBCF21153105F9F033
:10272000281B390B2430310580F48A819B81611587
:10273000710521F0FB019383828304C09093C90348
:102740008093C803FE01329644C0FE01E20FF31FDE
:102750008193919322503109398328833AC0209183
:10276000C6033091C703232B41F420913E013091E1
:102770003F013093C7032093C60320913C01309161
:102780003D012115310541F42DB73EB7409140017F
:1027900050914101241B350BE091C603F091C70312
:1027A000E217F307A0F42E1B3F0B2817390778F028
:1027B000AC014E5F5F4F2417350748F04E0F5F1F87
:1027C0005093C7034093C6038193919302C0E0E006
:1027D000F0E0CF01DF91CF911F910F910895CF933A
:1027E000DF93009709F481C0FC01329713821282B3
:1027F000A091C803B091C903109781F42081318161
:10280000820F931F2091C6033091C7032817390701
:1028100051F5F093C703E093C60367C0ED0120E0D4
:1028200030E0CE17DF0740F44A815B819E014115FD
:102830005105F1F0EA01F5CFD383C2834081518184
:10284000840F951FC817D90759F488819981840F7F
:10285000951F0296918380838A819B8193838283D3
:102860002115310529F4F093C903E093C8033DC055
:10287000E901FB83EA8349915991C40FD51FEC17F5
:10288000FD0761F480819181840F951F0296E90113
:1028900099838883828193819B838A83E0E0F0E03F
:1028A00012968D919C911397009719F0FD01DC0110
:1028B000F7CF8D919C9111979D012E5F3F4F820F15
:1028C000931F2091C6033091C7032817390769F475
:1028D000309729F41092C9031092C80302C01382E2
:1028E0001282B093C703A093C603DF91CF910895DE
:1028F00081E090E0F8940C947D1410E0CFE8D0E0F3
:1029000004C0FE010E9414132196C039D107C9F7F3
:04291000F894FFCF69
:10291400E102E102380931023D04210246052C049A
:102924003402160223011903250438043102640217
:10293400580A42024E04540366015D05000204066F
:102944000B0112030E021E026903010C0000CA03EC
:102954002000000000007503E2020C03C2033D03E3
:102964001B032F030000000059044E046B042204CF
:1029740046043204230443455400000000010A03C2
:102984003C004345535400000001030278001F1C1F
:102994001F1E1F1E1F1F1E1F1E1F5374617274698A
:1029A4006E672075702E2E2E004E656F5069786507
:1029B4006C2068617320626567756E000D0A002BD8
:1029C4002B2B20436F6C6F757220427574746F6E7D
:0E29D4002050726573736564202B2B2B00005E
:00000001FF
