:100000000C9490000C94F4040C94CD040C94B8005F
:100010000C94B8000C94B8000C94B8000C94B80080
:100020000C94B8000C94B8000C94B8000C94B80070
:100030000C94B8000C94B8000C94B8000C94B80060
:100040000C942A0B0C94B8000C9441050C941B05DD
:100050000C94B8000C94B8000C94B8000C94B80040
:100060000C9476060C94B800A310A610A910AC103E
:10007000AF10B210B510B810BB10BE10C110C81030
:1000800045727253756E4D6F6E5475655765645445
:100090006875467269536174004572724A616E46B2
:1000A00065624D61724170724D61794A756E4A7533
:1000B0006C4175675365704F63744E6F764465632A
:1000C00000010204081020408001020408102001F1
:1000D000020408102000000000250028002B000466
:1000E00004040404040404020202020202030303DF
:1000F00003030300000000240027002A0000000082
:100100000023002600290000000008000201000072
:10011000030407000000000000000000CD109A1248
:1001200011241FBECFEFD8E0DEBFCDBF11E0A0E0AD
:10013000B1E0E6E1F9E202C005900D92AC3CB107F6
:10014000D9F723E0ACECB1E001C01D92A93CB207A5
:10015000E1F710E0CFE8D0E004C02197FE010E9453
:100160001513CE38D107C9F70E94740B0C947E1476
:100170000C940000009769F0FC0101900020E9F761
:100180003197AF01481B590BBC018DEE91E00C94E7
:10019000E20280E090E00895CF93DF930E94BA00DE
:1001A000EC018AEA91E00E94BA008C0F9D1FDF915A
:1001B000CF9108958F929F92AF92BF92CF92DF928C
:1001C000EF92FF92CF93DF934B01AA24BB24F82D2B
:1001D000C52ED62EE72EFF24AC2DE42F2091DE0273
:1001E000222361F0829E40011124F92D2C9D600193
:1001F0001124AD2D249FE0011124ED2F3091E40254
:10020000B091E102E090DF02F090E0023B1308C001
:100210009C01220F331F820F931F8E0D9F1D19C04B
:10022000880F991F880F991F8E0D9F1D472F5527E7
:1002300066277727EC01C30FD11D222349F030E058
:10024000249F7001259FF00C349FF00C11244F2D3A
:1002500048832091E102EC01C20FD11DF883209167
:10026000E202EC01C20FD11DA8832091E302DC0160
:10027000A20FB11DEC93DF91CF91FF90EF90DF9033
:10028000CF90BF90AF909F908F9008950F931F9342
:10029000CF93DF93CDB7DEB729970FB6F894DEBFC3
:1002A0000FBECDBF0E94050B0091E5021091E60242
:1002B0002091E7023091E802DC01CB01801B910B19
:1002C000A20BB30B8C329140A105B10558F3F89401
:1002D0008091DB029091DC029A838983A091DF02F6
:1002E000B091E002FD0131968C9189878091D7020F
:1002F000A091E902B091EA02882309F417C11B8298
:10030000AB32B10509F058C09BB18091EB02982B3C
:1003100098879BB1809589238F838F818C83898572
:1003200087FF02C088858C8358856F8149853C8111
:100330002B8189819A815BB9262F3BB900C046FD8C
:10034000252F6BB900C05BB9362F2BB900C045FD16
:10035000352F6BB900C05BB9262F3BB900C044FDF7
:10036000252F6BB900C05BB9362F2BB900C043FDF8
:10037000352F6BB900C05BB9262F3BB900C042FDD9
:10038000252F6BB900C05BB9362F2BB900C041FDDA
:10039000352F6BB900C05BB9262F3BB900C040FDBB
:1003A000252F6BB901975BB9362F2BB9419147FDCA
:1003B000352F6BB901F6B6C0A532B10509F058C0AA
:1003C00095B18091EB02982B988795B18095892300
:1003D0008F838F818C83898587FF02C088858C837A
:1003E00058856F8149853C812B8189819A8155B9D6
:1003F000262F35B900C046FD252F65B900C055B977
:10040000362F25B900C045FD352F65B900C055B957
:10041000262F35B900C044FD252F65B900C055B958
:10042000362F25B900C043FD352F65B900C055B939
:10043000262F35B900C042FD252F65B900C055B93A
:10044000362F25B900C041FD352F65B900C055B91B
:10045000262F35B900C040FD252F65B9019755B944
:10046000362F25B9419147FD352F65B901F65AC0A0
:10047000989709F08BC098B18091EB02982B9887E0
:1004800098B1809589238F838F818C83898587FF9D
:1004900002C088858C8358856F8149853C812B817A
:1004A00089819A8158B9262F38B900C046FD252F79
:1004B00068B900C058B9362F28B900C045FD352F9E
:1004C00068B900C058B9262F38B900C044FD252F9F
:1004D00068B900C058B9362F28B900C043FD352F80
:1004E00068B900C058B9262F38B900C042FD252F81
:1004F00068B900C058B9362F28B900C041FD352F62
:1005000068B900C058B9262F38B900C040FD252F62
:1005100068B9019758B9362F28B9419147FD352F51
:1005200068B901F649873C832B832EC09C9180914A
:10053000EB02982B98879C91809589238F838F81DC
:100540008E8388E08D8358856F8149853D812E811A
:1005500089819A815C9347FD252F2C93262F3A950C
:1005600031F0441F6C9300C000C000C0F3CF6C9307
:10057000000038E04191019769F7B093EA02A09337
:10058000E90249873D832E839A83898378940E9468
:10059000050B6093E5027093E6028093E702909367
:1005A000E80229960FB6F894DEBF0FBECDBFDF91EB
:1005B000CF911F910F910895682F8DEE91E00C94CB
:1005C00075030895CF92DF92EF92FF920F931F93DE
:1005D000CF93DF936C017A018B01C0E0D0E0CE15A0
:1005E000DF0581F0D8016D918D01D601ED91FC916F
:1005F0000190F081E02DC6010995892B11F021961B
:10060000EECF7E01C701DF91CF911F910F91FF9037
:10061000EF90DF90CF900895FC01538D448D252FEE
:1006200030E0842F90E0821B930B541710F0CF968C
:10063000089501970895FC01918D828D981761F0BE
:10064000828DDF01A80FB11D5D968C91928D9F5F09
:100650009F73928F90E008958FEF9FEF0895FC01B4
:10066000918D828D981731F0828DE80FF11D858D67
:1006700090E008958FEF9FEF0895FC01918D228DFA
:10068000892F90E0805C9F4F821B91098F7399277F
:1006900008958DEE91E00E943D0321E0892B09F43D
:1006A00020E0822F0895FC01848DDF01A80FB11D89
:1006B000A35ABF4F2C91848D90E001968F73992798
:1006C000848FA689B7892C93A089B1898C91837076
:1006D00080648C93938D848D981306C00288F3896F
:1006E000E02D80818F7D80830895EF92FF920F939C
:1006F0001F93CF93DF93EC0181E0888F9B8D8C8DCE
:10070000981305C0E889F989808185FD26C0F62EF9
:100710000B8D10E00F5F1F4F0F731127E02E8C8D94
:10072000E8120CC00FB607FCFACFE889F98980817E
:1007300085FFF5CFCE010E945303F1CF8B8DFE01D3
:10074000E80FF11DE35AFF4FF0829FB7F8940B8F2B
:10075000EA89FB89808180620AC09FB7F894EE899C
:10076000FF896083E889F989808183708064808350
:100770009FBF81E090E0DF91CF911F910F91FF909B
:10078000EF900895CF93DF93EC01888D8823C9F013
:10079000EA89FB89808185FD05C0A889B9898C918A
:1007A00086FD0FC00FB607FCF5CF808185FFF2CF25
:1007B000A889B9898C9185FFEDCFCE010E945303A2
:1007C000E7CFDF91CF91089580E090E0892B29F069
:1007D0000E94490381110C940000089585ED8093D7
:1007E000BC008091BC0084FDFCCF1092D201089522
:1007F00040916A03262F30E0240F311D213231054C
:10080000DCF42091D2012430C9F4FC0180E090E0B6
:10081000861758F430916A032191DC01A65BBC4F26
:10082000A30FB11D2C930196F3CF80916A03680F3B
:1008300060936A0380E0089581E0089582E008955E
:10084000089508950895E091D6018091D501E817A3
:1008500030F4F0E0E65DFC4F808190E008958FEF8A
:100860009FEF08959091D6018091D501981750F48B
:10087000E92FF0E0E65DFC4F208130E09F5F909330
:10088000D60102C02FEF3FEFC90108958091D50135
:1008900090E02091D601821B91090895CF93DF93B8
:1008A000CB01EA01642F0E94F803CE01DF91CF91C2
:1008B0000895CF93DF931F92CDB7DEB7698361E0D0
:1008C000CE0101960E94F80381E090E00F90DF9145
:1008D000CF910895089580E090E008950E947914E2
:1008E0002FB7F8948091B5039091B603A091B70308
:1008F000B091B8032FBF4091260350912703609118
:10090000280370912903841B950BA60BB70B813923
:100910009140A105B10508F43FC08DEA91E00E9425
:10092000CC0080919A028F5F80939A0280919A0204
:100930008F3010F010929A02E0919A0284E0E89FC2
:10094000F0011124E556FD4F80819181A281B38190
:100950008093960290939702A0939802B093990285
:1009600060919A0280E090E00E94B21281E0809350
:100970003A012FB7F8948091B5039091B603A091F6
:10098000B703B091B8032FBF80932603909327033A
:10099000A0932803B093290308951F920F920FB6D6
:1009A0000F9211242F933F934F935F936F937F93F5
:1009B0008F939F93AF93BF93EF93FF93E0910201C7
:1009C000F09103010995FF91EF91BF91AF919F9134
:1009D0008F917F916F915F914F913F912F910F90E8
:1009E0000FBE0F901F9018951F920F920FB60F9287
:1009F00011242F933F934F935F936F937F938F9324
:100A00009F93AF93BF93EF93FF93E0910001F09119
:100A100001010995FF91EF91BF91AF919F918F9146
:100A20007F916F915F914F913F912F910F900FBEEA
:100A30000F901F9018951F920F920FB60F921124CE
:100A40002F933F934F935F936F937F938F939F93D6
:100A5000AF93BF93EF93FF938DEE91E00E9453030A
:100A6000FF91EF91BF91AF919F918F917F916F9186
:100A70005F914F913F912F910F900FBE0F901F905C
:100A800018951F920F920FB60F9211242F938F93E8
:100A90009F93EF93FF93E091FD01F091FE01808120
:100AA000E0910302F091040282FD12C090818091D6
:100AB00006028F5F8F7320910702821751F0E09139
:100AC0000602F0E0E351FE4F958F8093060201C0CD
:100AD0008081FF91EF919F918F912F910F900FBE89
:100AE0000F901F9018954F925F926F927F928F9206
:100AF0009F92AF92BF92CF92DF92EF92FF920F93AD
:100B00001F93CF93DF934B015C018091B1039091D0
:100B1000B203A091B303B091B40388159905AA0557
:100B2000BB0509F4D2C08CE3C82ED12CE12CF12CEA
:100B3000C501B401A70196010E94D4126093B903C4
:100B4000CA01B901A70196010E94D4126093BA03A9
:100B5000C501B40120E13EE040E050E00E94D41223
:100B6000CA01B90128E130E040E050E00E94D4120F
:100B70006093BB03C501B40120E831E541E050E0DA
:100B80000E94D41269017A01CA01B9016C5F7F4FDA
:100B90008F4F9F4F27E030E040E050E00E94D4129A
:100BA0006F5F6093BC03412C512C320140E004E69E
:100BB00010E0C0E9D1E0242F30E02E54384FF90185
:100BC000E370FF27309789F4C901B8010E94C01271
:100BD000892B31F4C901BE010E94C012892B29F46E
:100BE0008EE691E0A0E0B0E004C08DE691E0A0E0E8
:100BF000B0E0480E591E6A1E7B1ED301C201AA270F
:100C0000BB27C816D906EA06FB0610F04F5FD3CF04
:100C10004093BF03309799F4C90164E670E00E94E5
:100C2000C012892B39F4C90160E971E00E94C01239
:100C3000892B29F48EE691E0A0E0B0E004C08DE6B7
:100C400091E0A0E0B0E0481A590A6A0A7B0AC41889
:100C5000D508E608F708C90164E670E00E94C012F2
:100C6000EC01C90160E971E00E94C012ADE7B1E09A
:100C700020E0213039F4309749F4209729F4009787
:100C800029F402C04C9103C04DE101C04CE150E099
:100C900060E070E0C416D506E606F70640F0C41A18
:100CA000D50AE60AF70A2F5F11962C3011F72F5F4D
:100CB0002093BE03C394C092BD038092B10390926F
:100CC000B203A092B303B092B403DF91CF911F910E
:100CD0000F91FF90EF90DF90CF90BF90AF909F90DB
:100CE0008F907F906F905F904F9008951F920F921A
:100CF0000FB60F9211242F933F934F935F936F93EF
:100D00007F938F939F93AF93BF93EF93FF938091C4
:100D1000B900887F803609F49CC068F5883209F4F0
:100D20005BC090F4803109F454C038F4882309F48E
:100D3000F6C0883009F44DC0F6C0883109F44CC0C3
:100D4000803209F45DC0EFC0803409F468C048F413
:100D5000803309F455C0883309F0E5C080938D03D2
:100D6000D8C0803509F44FC0883509F45DC0883497
:100D700009F0D9C0D6C0883909F4C7C0A8F48837AB
:100D800009F467C038F4883609F463C0803709F481
:100D900060C0C9C0883809F4B8C0803909F45FC0A0
:100DA000803809F0C0C05BC0803B09F486C038F4CD
:100DB000803A09F466C0883A09F47FC0B4C0803C28
:100DC00009F4A7C0883C09F4A4C0883B09F48AC090
:100DD000AAC08091B00310C09091AF038091AE0380
:100DE000981770F5E091AF0381E08E0F8093AF0309
:100DF000F0E0E257FC4F80818093BB0085EC86C019
:100E000080938D038EC0E091AF0381E08E0F8093BD
:100E1000AF038091BB00F0E0E257FC4F80839091DC
:100E2000AF038091AE036EC0E091AF0381E08E0FFF
:100E30008093AF038091BB00F0E0E257FC4F8083CA
:100E40008091D10181116DC081E08093D00184EA4D
:100E500061C083E08093D20110928C03CFCF809148
:100E60008C03803208F051C0E0918C0381E08E0F3A
:100E700080938C038091BB00F0E0E459FC4F8083A9
:100E8000BDCF85EC8093BC001092D20180918C0381
:100E9000803230F4E0918C03F0E0E459FC4F108292
:100EA00060918C0370E0E091CC01F091CD018CE673
:100EB00093E0099510928C0336C084E08093D201B0
:100EC00010926B0310926A03E091CE01F091CF0172
:100ED000099580916A03811105C081E080936A03BE
:100EE00010924A03E0916B0381E08E0F80936B03B5
:100EF000F0E0E65BFC4F80818093BB0090916B0338
:100F000080916A03981708F479CF85E88093BC0034
:100F10000AC085EC8093BC001092D20104C01092EC
:100F20008D030E94EE03FF91EF91BF91AF919F91CE
:100F30008F917F916F915F914F913F912F910F9082
:100F40000FBE0F901F901895CF93DF93EC018AE3AB
:100F50000E94DC02CA30D1051CF480E30E94DC024E
:100F6000BE01DD0F880B990BDF91CF910C942F09F7
:100F7000CF93DF93EC010A971CF480E30E94DC021C
:100F8000BE01DD0F880B990BDF91CF910C942F09D7
:100F9000CF93DF93C0E0D0E08091D9029091DA0244
:100FA000C817D90730F440E050E0BA01CE010E94E2
:100FB000DA002196CE36D10579F7DF91CF910895E9
:100FC000EF92FF920F931F93CF93DF93FC01E0808A
:100FD0000181C0E0D0E010E0F12C0C171D07B4F047
:100FE00040919602509197026091980270919902F7
:100FF000CE018E0D9F1D2091D9023091DA02821709
:10100000930710F40E94DA002196E7CFDF91CF9189
:101010001F910F91FF90EF900895833081F028F495
:10102000813099F08230A1F008958730A9F088309E
:10103000B9F08430D1F4809180008F7D03C080911D
:1010400080008F7780938000089584B58F7702C0E9
:1010500084B58F7D84BD08958091B0008F7703C0E3
:101060008091B0008F7D8093B00008952F923F92C1
:101070004F925F926F927F928F929F92AF92BF92A8
:10108000CF92DF92EF92FF920F931F93CF93DF9354
:10109000CDB7DEB72D970FB6F894DEBF0FBECDBF2C
:1010A00058877A87242E862E41110CC083942CE019
:1010B000281550F43FEFC31AD30A332433948824FD
:1010C000839404C0342E02C0332433948A858D87E0
:1010D000EEE4EC0DAE2FB0E020E833E341EE51E05A
:1010E0000E9431132B013C0122EB37E06D01E4E655
:1010F000F0E000E911E0C901825B97408C159D0585
:10110000DCF4C90183709927892B99F4C901BF01C7
:101110000E94C012892B31F4C901B8010E94C0128B
:10112000892B39F4A0E84A0EA1E55A1EA1E06A1EF7
:10113000711C2F5F3F4FDFCFBEE4CB1AB8EFDB0A45
:10114000C60164E670E00E94C0127C01C60160E93D
:1011500071E00E94C0125C010DE711E0E1E0F0E0F7
:10116000912C23E0C222DD24E815F90534F5E230A4
:10117000F10589F4C114D10471F4E114F10419F4F6
:10118000A114B10441F430E8430E3BE3531E36E2B0
:10119000631E711C0EC0D8018C91A82FB0E020E80E
:1011A00031E541E050E00E943113460E571E681EA3
:1011B000791E31960F5F1F4FD7CFBD852B2F30E0A3
:1011C000A0E1BEE00E941B13460E571E681E791E4A
:1011D000088510E0C301B2010E9473058091BC0331
:1011E0009801281B3109C901079667E070E00E9449
:1011F000C012232D30E02150310967E0629FA00129
:10120000639F500D1124DC01A40FB51F20E831E5C8
:1012100041E050E00E943C13640D751D861D971D32
:10122000211004C060587A43894091092D960FB669
:10123000F894DEBF0FBECDBFDF91CF911F910F910C
:10124000FF90EF90DF90CF90BF90AF909F908F90E6
:101250007F906F905F904F903F902F9008958F9266
:101260009F92AF92BF92CF92DF92EF92FF920F9335
:101270001F93CF93DF93CDB7DEB7A1970FB6F89446
:10128000DEBF0FBECDBF6B017C0197FF29C08DE291
:101290000E94DC028C0122273327A9012C193D0969
:1012A0004E095F0919A2CE0181967C019AE0892E30
:1012B000912CA12CB12CCA01B901A50194010E9465
:1012C000D412605DF70162937F012115310541055C
:1012D000510589F7CF010E94BA00800F911F1DC0F0
:1012E0009B01AC0119A28E010F5D1F4F8AE0C82E31
:1012F000D12CE12CF12CCA01B901A70196010E9461
:10130000D412605DF80162938F012115310541050A
:10131000510589F7CF010E94BA00A1960FB6F89443
:10132000DEBF0FBECDBFDF91CF911F910F91FF9018
:10133000EF90DF90CF90BF90AF909F908F900895E7
:101340008F929F92AF92BF92CF92DF92EF92FF92D5
:101350000F931F93CF93DF936C01E090F602F09010
:10136000F7020091F8021091F9022091FA023091EF
:10137000FB024091FC025091FD026091FE027091CF
:10138000FF0280910003909101030E943608C6EF8E
:10139000D2E068A379A38AA39BA3E2E0F3E0E08014
:1013A000F1800281138124813581468157816085D6
:1013B0007185828593850E9436086B017C016CA340
:1013C0007DA38EA39FA3AE89BF892CE330E00E944A
:1013D0002A1308A119A12AA13BA148015901861A83
:1013E000970AA80AB90A888E998EAA8EBB8EAA85FA
:1013F000BB852CE330E00E942A13C61AD70AE80AFC
:10140000F90ACC8EDD8EEE8EFF8EDF91CF911F918B
:101410000F91FF90EF90DF90CF90BF90AF909F9093
:101420008F900895CF93DF93282F30E0F901E95F83
:10143000FE4F8491F901EF53FF4FD491F901E1522E
:10144000FF4FC491CC2391F081110E940D08EC2F25
:10145000F0E0EE0FFF1FE350FF4FA591B491EC9128
:10146000ED2381E090E021F480E002C080E090E094
:10147000DF91CF9108951F93CF93DF93282F30E012
:10148000F901E95FFE4F8491F901EF53FF4FD491C9
:10149000F901E152FF4FC491CC23C1F0162F811105
:1014A0000E940D08EC2FF0E0EE0FFF1FEB52FF4FF4
:1014B000A591B4919FB7F894111104C08C91D09567
:1014C000D82302C0EC91DE2BDC939FBFDF91CF913C
:1014D0001F910895EF92FF920F931F93CF93DF9385
:1014E000E82EF62EC7E0D0E0042F10E0B8010C2E55
:1014F00002C0759567950A94E2F761708E2D0E947F
:101500003B0A61E08F2D0E943B0A60E08F2D0E9414
:101510003B0A219758F7DF91CF911F910F91FF90D0
:10152000EF900895CF93DF9390E0FC01EF53FF4FCE
:101530002491FC01E152FF4F8491882361F190E0F6
:10154000880F991FFC01ED50FF4FC591D491FC010C
:10155000EB52FF4FA591B491611109C09FB7F89468
:101560008881209582238883EC912E230BC06230E2
:1015700061F49FB7F8948881322F30958323888354
:10158000EC912E2B2C939FBF06C08FB7F894E88167
:101590002E2B28838FBFDF91CF91089560E080913B
:1015A000ED020E94920A61E08091EC020E943B0AE7
:1015B0008091ED020E94120A0197D1F360E08091C0
:1015C000EC020C943B0A1F93CF93DF93182FCCEEC1
:1015D000D2E061E089810E94920A61E089810E94E3
:1015E0003B0A61E088810E943B0A60E089810E9499
:1015F0003B0A60E088810E943B0A412F6881898113
:10160000DF91CF911F910C946A0A3FB7F8948091B3
:10161000C1039091C203A091C303B091C40326B546
:10162000A89B05C02F3F19F00196A11DB11D3FBF1A
:10163000BA2FA92F982F8827820F911DA11DB11DA8
:10164000BC01CD0143E0660F771F881F991F4A95A3
:10165000D1F708951F920F920FB60F9211242F9376
:101660003F938F939F93AF93BF938091B5039091D6
:10167000B603A091B703B091B8033091C00326E040
:10168000230F2D3720F40296A11DB11D05C029E8B6
:10169000230F0396A11DB11D2093C0038093B503B2
:1016A0009093B603A093B703B093B8038091C1039E
:1016B0009091C203A091C303B091C4030196A11DF0
:1016C000B11D8093C1039093C203A093C303B09351
:1016D000C403BF91AF919F918F913F912F910F9034
:1016E0000FBE0F901F901895789484B5826084BDCA
:1016F00084B5816084BD85B5826085BD85B5816016
:1017000085BD80916E00816080936E001092810093
:10171000809181008260809381008091810081604E
:10172000809381008091800081608093800080910F
:10173000B10084608093B1008091B000816080939B
:10174000B00080917A00846080937A0080917A0062
:10175000826080937A0080917A008E7F80937A00F5
:1017600080917A00806880937A001092C100E091A5
:10177000FD01F091FE01C2E0C083E091F901F0911A
:10178000FA011082E091FB01F091FC0188E0808376
:1017900010920502E0910102F091020286E080833E
:1017A000E091FF01F0910002808180618083E091EF
:1017B000FF01F0910002808188608083E091FF0149
:1017C000F0910002808180688083E091FF01F091B8
:1017D000000280818F7D808389E891E00E94CC00A7
:1017E0001092D6011092D5011092D4011092D3011B
:1017F0001092D201D1E0D093D1011092D00161E0DA
:1018000082E10E943B0A61E083E10E943B0A8091F1
:10181000B9008E7F8093B9008091B9008D7F80934D
:10182000B90080E28093B80085E48093BC0080E238
:1018300094E09093CF018093CE0181E294E0909365
:10184000CD018093CC018091ED028231F1F4809141
:10185000EC028331D1F4D093F50261E082E10E9481
:101860003B0A61E083E10E943B0A8091B9008E7FD0
:101870008093B9008091B9008D7F8093B900C093A7
:10188000B80085E08093BC0007C01092F50261E0CB
:101890008091EC020E94920A62E082E00E94920A29
:1018A00080E794E0909301018093000180916900AA
:1018B0008C7F826080936900E89A80E090E00E94CB
:1018C000AA1280939A0280919A028F3010F010929F
:1018D0009A02E0919A0224E0E29FF0011124E55679
:1018E000FD4F80819181A281B38180939602909374
:1018F0009702A0939802B09399028091DD0287FD30
:1019000008C061E00E94920A60E08091DD020E94BE
:101910003B0A81E08093D8022091DE02222339F134
:10192000C091DF02D091E002215051F030E040E060
:1019300050E06FEF7FEF80E090E00E94F61202C06F
:1019400020E030E0FE014091DB025091DC02CF014B
:101950008C1B9D0B8417950740F44081429FC0016A
:10196000439F900D11249193EECF1092DE020E94BE
:10197000C8078091DF029091E002892B11F00E944C
:10198000460187E991E00E94CC0081E080933A0112
:101990005DE6252E3324339462E0462E63E0562E16
:1019A00076EF672E72E0772EE4EE8E2EF4EC9F2E0B
:1019B00005EF12E02FB7F8948091B5039091B6032C
:1019C000A091B703B091B8032FBF4091E9015091A6
:1019D000EA016091EB017091EC01841B950BA60B61
:1019E000B70B81339547A105B10508F0A1C18091DE
:1019F0003A0181119DC199C1A33008F0D6C2829DE0
:101A0000B001839D700D929D700D11246159734238
:101A10008D5C97409695879596958795860F971F2D
:101A20009C01240F351FA8E1B0E00E941B139B010D
:101A3000AC012F0F311D411D511DACE3B0E00E94E0
:101A400031139B01AC012E0F311D411D511D0E9410
:101A500031139B01AC012F0D311D411D511D690139
:101A60007A0130E8C31A3CEBD30A32E9E30A37ECD7
:101A7000F30AC701B6010E947305C091BF03D0E00D
:101A8000CE54D84F60910E0370910F0380911003D4
:101A9000909111030E9473058091BF0390E08E54D2
:101AA000984F8C179D0759F0C701B6010E94730526
:101AB0008091BF0390E08E54984F0E94A009C70107
:101AC000B6010E947305C091BF03D0E0CE54D84F39
:101AD00060910E0370910F03809110039091110398
:101AE0000E9473058091BF0390E08E54984F8C172D
:101AF0009D0759F0C701B6010E9473058091BF038D
:101B000090E08E54984F0E94A0094091120350918A
:101B10001303609114037091150380910E0390914B
:101B20000F03A0911003B0911103481759076A07DA
:101B30007B0709F043C25092E8014092E701A0916F
:101B40000C03B0910D032CE330E00E942A13C60E63
:101B5000D71EE81EF91EC092E301D092E401E09284
:101B6000E501F092E601A090E701B090E801C7011D
:101B7000B6010E9473058091BB0390E00E94B807F4
:101B8000C701B6010E9473058091BA0390E00E94DC
:101B9000A407C701B6010E9473058091B90390E0C4
:101BA0000E94A40780E20E94DC02C701B6010E94E5
:101BB00073058091BC03982F990F890FC7EDD1E071
:101BC000DE0120E030E090E0FC01E20FF31FE0587E
:101BD000FF4FE491ED932F5F3F4F23303105A1F785
:101BE0001092DA0187ED91E00E94BA0080E20E9433
:101BF000DC02C701B6010E9473058091BD0390E02D
:101C00000E94B80780E20E94DC02C701B6010E9470
:101C100073052091BE0343E0249F9001112480E0CE
:101C200090E0FC01E20FF31FE756FF4FE491E993C8
:101C3000019683309105A9F71092DA0187ED91E0C2
:101C40000E94BA0080E20E94DC02C701B6010E9435
:101C500073056091BF0370E06E54784F072E000C3F
:101C6000880B990B0E942F0980E20E94DC02C501BB
:101C70000E94BA008AEA91E00E94BA00C090E30193
:101C8000D090E401E090E501F090E601C701B601D3
:101C90000E947305C091BB03D0E0D093E201C093D2
:101CA000E101C701B6010E947305E090BA03F12C6F
:101CB0000E94C80755E0E516F1040CF0A4C188E3C2
:101CC00091E00E94E00786E391E00E94E00784E350
:101CD00091E00E94E007209709F45AC2CD30D10567
:101CE0000CF02C97FE013197EC30F10508F427C277
:101CF0008091DF029091E002892B11F00E94460151
:101D00002FB7F8948091B5039091B603A091B703D3
:101D1000B091B8032FBF8093E9019093EA01A0939B
:101D2000EB01B093EC0110923A010E94E40342CE21
:101D30008091F502882309F43FC08092BC00809115
:101D4000BC0087FFFCCF80ED8093BB009092BC006D
:101D50008091BC0087FFFCCF1092BB009092BC002A
:101D60008091BC0087FFFCCF8092BC008091BC00BA
:101D700087FFFCCF81ED8093BB009092BC008091E7
:101D8000BC0087FFFCCFEEEEF2E09092BC008091A9
:101D9000BC0087FFFCCF8091BB0081930E171F070B
:101DA000A1F744E84093BC008091BC0087FFFCCFC2
:101DB00054E95093BC008BC080ED0E94E30A0E945E
:101DC000CE0A61E08091ED020E94920A40E06091AB
:101DD000EC028091ED020E946A0A0E94CE0A81ED17
:101DE0000E94E30A0E94CE0A4EEEC42E42E0D42E98
:101DF000C0E0D0E060E08091ED020E94920A37E0FE
:101E0000E32EF12CB12C61E08091EC020E943B0AA0
:101E10008091ED020E94120A99270E2C01C0880FB2
:101E20000A94EAF7B82A60E08091EC020E943B0A2B
:101E300081E0E81AF10838F7F601B1926F0161E02C
:101E40008091ED02C630D10549F00E94920A60E00F
:101E50008091EC020E943B0A60E008C00E94920A56
:101E600060E08091EC020E943B0A61E08091ED020B
:101E70000E943B0A61E08091EC020E943B0A60E014
:101E80008091EC020E943B0A60E08091ED020E948A
:101E9000920A2196C730D10509F0ACCF61E080915C
:101EA000ED020E94920A60E08091ED020E943B0ADE
:101EB00061E08091EC020E943B0A61E08091ED02BA
:101EC0000E943B0A60E08091ED020E94920A80919C
:101ED000EE02C82FC695C695C695CE709C2F990F59
:101EE000990FC90F8F70FC2EF80E8091EF02E82F2A
:101EF000E695E695E695EE709E2F990F990FE90FFE
:101F00008F70E80F8091F002F82FFF7087FF08C0F4
:101F100085FB882780F92CE0289FF00D112409C04B
:101F20008073869586958695982F990F990F890FBE
:101F3000F80F5091F202352F3695369536953E7052
:101F4000432F440F440F340F8091F302A82FA6951E
:101F5000A695A695AE709A2F990F990FA90F8F701D
:101F6000A80F8091F402982F92959F708F704AE08D
:101F7000949F800D112490E08053984F5F70530F11
:101F8000452F50E0B0E06A2F70E0615071092B2FAF
:101F900030E0261737070CF02FCD23583E4FE901CC
:101FA0002881420F511DBF5FF2CF9C012370332760
:101FB000232B09F024CD4F5F5F4F21CD8417950768
:101FC000A607B70760F4C816D906EA06FB0608F4A8
:101FD000B2CDC416D506E606F70660F0ACCDC41641
:101FE000D506E606F70630F0C816D906EA06FB065F
:101FF00008F4A1CD7092E8016092E701A09100037E
:10200000B0910103A0CD8AE0E816F1045CF486E308
:1020100091E00E94E00782E391E00E94E00780E304
:1020200091E00EC09FE0E916F1047CF486E391E0B4
:102030000E94E00782E391E00E94E0078CE291E0D9
:102040000E94E0078EE291E044CEE4E1EE16F10456
:102050003CF488E391E00E94E0078AE291E051C0FD
:10206000F9E1EF16F1041CF48AE291E024C02EE1BC
:10207000E216F1047CF488E291E00E94E00786E237
:1020800091E00E94E00784E291E00E94E00782E292
:1020900091E051C033E2E316F1043CF488E391E0AF
:1020A0000E94E00782E291E02CC048E2E416F104CD
:1020B0005CF482E291E00E94E00782E391E00E94FA
:1020C000E00780E391E00EC05DE2E516F1047CF4E8
:1020D00082E291E00E94E00782E391E00E94E00743
:1020E0008CE291E00E94E0078EE291E024C082E35E
:1020F000E816F1045CF488E391E00E94E00780E2D6
:1021000091E00E94E00784E391E015C097E3E916AF
:10211000F1041CF48EE191E002C088E291E00E949B
:10212000E00786E291E00E94E00784E291E00E94ED
:10213000E00786E391E00E94E0072196CFCDEC5CBA
:10214000FF4F0C9415138CE191E024C08AE191E0DB
:1021500021C088E191E01EC086E191E01BC084E1CE
:1021600091E018C082E191E015C080E191E012C0D9
:102170008EE091E00FC08CE091E00CC08AE091E02D
:1021800009C088E091E00E94E00786E091E002C08B
:1021900084E091E00E94E007ABCD0F931F93CF93B3
:1021A000DF93CDB7DEB768970FB6F894DEBF0FBEEA
:1021B000CDBF1092F0011092EF0188EE93E0A0E005
:1021C000B0E08093F1019093F201A093F301B093FA
:1021D000F40125E431E03093EE012093ED0125EC8C
:1021E00030E03093FA012093F90124EC30E0309391
:1021F000FC012093FB0120EC30E03093FE012093A2
:10220000FD0121EC30E0309300022093FF0122EC2D
:1022100030E0309302022093010226EC30E030934C
:1022200004022093030210920602109207021092F9
:1022300008021092090210928D0210928C02809373
:102240008E0290938F02A0939002B093910287E543
:1022500091E090938B0280938A028CE0E1E7F1E0B9
:10226000DE011D9601900D928A95E1F78CE0E5E67E
:10227000F1E0DE01119601900D928A95E1F78CE074
:10228000FE013D96A6EFB2E001900D928A95E1F72E
:102290008CE0FE013196A2E0B3E001900D928A95A8
:1022A000E1F782E18093ED0283E18093EC028EED11
:1022B00097E0909324038093230381E0809322038B
:1022C0008093210310921E0310921F03109220038B
:1022D00093E0909325031092D8021092DE021092A0
:1022E000E5021092E6021092E7021092E802809353
:1022F000E4028093E1021092E20292E09093E30202
:102300008093D7020AE411E01093DC020093DB0211
:102310008AE491E00E9458139093E0028093DF02D8
:10232000009769F0FC019801119221503040E1F7CB
:102330008EE690E09093DA028093D90208C0109262
:10234000DC021092DB021092DA021092D9028CE0C9
:102350008093DD028091D802882341F061E08CE017
:102360000E94920A60E08CE00E943B0AEBEEF0E0F3
:10237000E491F0E0EE0FFF1FEB52FF4F8591949137
:102380009093EA028093E902EDECF0E0E491E093AF
:10239000EB0280E09FE7AFE7B0E080939B02909371
:1023A0009C02A0939D02B0939E0280E09AEFAAEF58
:1023B000B0E080939F029093A002A093A102B093FB
:1023C000A2028FE790E0DC018093A3029093A40225
:1023D000A093A502B093A6028AEF90E0DC0180935F
:1023E000A7029093A802A093A902B093AA028FE734
:1023F0009FE7A0E0B0E08093AB029093AC02A09383
:10240000AD02B093AE028AEF9AEFA0E0B0E0809305
:10241000AF029093B002A093B102B093B20280E0F9
:1024200090E0AFE7B0E08093B3029093B402A09342
:10243000B502B093B60280E090E0AFEFB0E08093D9
:10244000B7029093B802A093B902B093BA0280E0A9
:102450009FE7A0E0B0E08093BB029093BC02A09302
:10246000BD02B093BE0280E09AEFA0E0B0E080939E
:10247000BF029093C002A093C102B093C2028FE743
:1024800090E0A0E0B0E08093C3029093C402A093D8
:10249000C502B093C6028FEF90E0A0E0B0E0809359
:1024A000C7029093C802A093C902B093CA028FE7F3
:1024B0009FE7AFE7B0E08093CB029093CC02A0936C
:1024C000CD02B093CE028AEF9AEFAAEFB0E08093EC
:1024D000CF029093D002A093D102B093D20280E0B9
:1024E00094E6AAEFB0E08093D3029093D402A09335
:1024F000D502B093D602E0919A0234E0E39FF00156
:102500001124E556FD4F80819181A281B381809392
:10251000960290939702A0939802B09399026896BE
:102520000FB6F894DEBF0FBECDBFDF91CF911F91E4
:102530000F9108958091DF029091E002009711F0D1
:102540000E94F0138091DD0287FD03C060E00C94CF
:10255000920A0895F999FECF92BD81BDF89A992704
:1025600080B50895262FF999FECF1FBA92BD81BD7F
:1025700020BD0FB6F894FA9AF99A0FBE0196089505
:1025800097FB072E16F4009407D077FD09D00E9420
:10259000441307FC05D03EF4909581959F4F089514
:1025A000709561957F4F0895A1E21A2EAA1BBB1B5F
:1025B000FD010DC0AA1FBB1FEE1FFF1FA217B3070F
:1025C000E407F50720F0A21BB30BE40BF50B661F25
:1025D000771F881F991F1A9469F7609570958095E9
:1025E00090959B01AC01BD01CF010895052E97FB8D
:1025F0001EF400940E940D1357FD07D00E94D412C0
:1026000007FC03D04EF40C940D1350954095309573
:1026100021953F4F4F4F5F4F08959095809570954E
:1026200061957F4F8F4F9F4F0895EE0FFF1F0590CD
:10263000F491E02D0994A29FB001B39FC001A39F24
:10264000700D811D1124911DB29F700D811D1124EB
:10265000911D08950E941B13B7FF0895821B930BD1
:1026600008950E941B13A59F900DB49F900DA49FE9
:10267000800D911D11240895B7FF0C9431130E9411
:102680003113821B930B0895AA1BBB1B51E107C09A
:10269000AA1FBB1FA617B70710F0A61BB70B881FF2
:1026A000991F5A95A9F780959095BC01CD01089581
:1026B0000F931F93CF93DF938230910510F482E044
:1026C00090E0E091C703F091C80320E030E0A0E083
:1026D000B0E0309719F14081518102811381481790
:1026E0005907C8F08417950769F4109731F01296CE
:1026F0000C93129713961C9327C00093C703109353
:10270000C80322C02115310519F04217530718F4E8
:102710009A01BD01EF01DF01F801DBCF2115310581
:10272000F9F0281B390B2430310580F48A819B8114
:102730006115710521F0FB019383828304C090939E
:10274000C8038093C703FE01329644C0FE01E20F26
:10275000F31F8193919322503109398328833AC022
:102760002091C5033091C603232B41F420913D01F4
:1027700030913E013093C6032093C50320913B0165
:1027800030913C012115310541F42DB73EB7409100
:102790003F0150914001241B350BE091C503F0919E
:1027A000C603E217F307A0F42E1B3F0B28173907C7
:1027B00078F0AC014E5F5F4F2417350748F04E0F9D
:1027C0005F1F5093C6034093C5038193919302C04A
:1027D000E0E0F0E0CF01DF91CF911F910F910895DC
:1027E000CF93DF93009709F481C0FC0132971382E5
:1027F0001282A091C703B091C803109781F4208181
:102800003181820F931F2091C5033091C603281791
:10281000390751F5F093C603E093C50367C0ED0196
:1028200020E030E0CE17DF0740F44A815B819E0153
:1028300041155105F1F0EA01F5CFD383C283408100
:102840005181840F951FC817D90759F48881998140
:10285000840F951F0296918380838A819B81938345
:1028600082832115310529F4F093C803E093C7034F
:102870003DC0E901FB83EA8349915991C40FD51FFB
:10288000EC17FD0761F480819181840F951F0296FA
:10289000E90199838883828193819B838A83E0E025
:1028A000F0E012968D919C911397009719F0FD011D
:1028B000DC01F7CF8D919C9111979D012E5F3F4FC9
:1028C000820F931F2091C5033091C6032817390743
:1028D00069F4309729F41092C8031092C70302C01C
:1028E00013821282B093C603A093C503DF91CF91E8
:1028F000089581E090E0F8940C947E1410E0CFE805
:10290000D0E004C0FE010E9415132196C039D10702
:06291000C9F7F894FFCFA7
:10291600E102E10237092F02370429024305320496
:102926002C021E0228011A0323043C042F026A0209
:10293600580A4A0252044D03690158050802000666
:1029460014010B03100216026403010000C9038080
:1029560000000000007503E2020C03C2033D031BE6
:10296600032F030000000059044E046B04220446A2
:10297600043204230443455400000000010A033CCA
:10298600004345535400000001030278001F1C1F3A
:102996001E1F1E1F1F1E1F1E1F53746172696E6746
:1029A6002075702E2E2E004E656F506978656C204E
:1029B60068617320626567756E000D0A002B2B2B0C
:1029C60020436F6C6F757220427574746F6E205061
:0C29D600726573736564202B2B2B0000CE
:00000001FF
