:100000000C9490000C94F2040C94CB040C94B80063
:100010000C94B8000C94B8000C94B8000C94B80080
:100020000C94B8000C94B8000C94B8000C94B80070
:100030000C94B8000C94B8000C94B8000C94B80060
:100040000C94280B0C94B8000C943F050C941905E3
:100050000C94B8000C94B8000C94B8000C94B80040
:100060000C9471050C94B8005B105E106110641064
:1000700067106A106D1070107310761079107C1074
:1000800045727253756E4D6F6E5475655765645445
:100090006875467269536174004572724A616E46B2
:1000A00065624D61724170724D61794A756E4A7533
:1000B0006C4175675365704F63744E6F764465632A
:1000C00000010204081020408001020408102001F1
:1000D000020408102000000000250028002B000466
:1000E00004040404040404020202020202030303DF
:1000F00003030300000000240027002A0000000082
:100100000023002600290000000008000201000072
:1001100003040700000000000000000081104E12E0
:1001200011241FBECFEFD8E0DEBFCDBF11E0A0E0AD
:10013000B1E0E4E7F8E202C005900D92A23CB107FD
:10014000D9F723E0A2ECB1E001C01D92AF3BB207AA
:10015000E1F710E0CFE8D0E004C02197FE010E9453
:10016000C912CE38D107C9F70E94720B0C942D1416
:100170000C940000009769F0FC0101900020E9F761
:100180003197AF01481B590BBC0183EE91E00C94F1
:10019000E20280E090E00895CF93DF930E94BA00DE
:1001A000EC0180EA91E00E94BA008C0F9D1FDF9164
:1001B000CF9108958F929F92AF92BF92CF92DF928C
:1001C000EF92FF92CF93DF934B01AA24BB24F82D2B
:1001D000C52ED62EE72EFF24AC2DE42F2091D4027D
:1001E000222361F0829E40011124F92D2C9D600193
:1001F0001124AD2D249FE0011124ED2F3091DA025E
:10020000B091D702E090D502F090D6023B1308C01F
:100210009C01220F331F820F931F8E0D9F1D19C04B
:10022000880F991F880F991F8E0D9F1D472F5527E7
:1002300066277727EC01C30FD11D222349F030E058
:10024000249F7001259FF00C349FF00C11244F2D3A
:1002500048832091D702EC01C20FD11DF883209171
:10026000D802EC01C20FD11DA8832091D902DC0174
:10027000A20FB11DEC93DF91CF91FF90EF90DF9033
:10028000CF90BF90AF909F908F9008950F931F9342
:10029000CF93DF93CDB7DEB729970FB6F894DEBFC3
:1002A0000FBECDBF0E94030B0091DB021091DC0258
:1002B0002091DD023091DE02DC01CB01801B910B2D
:1002C000A20BB30B8C329140A105B10558F3F89401
:1002D0008091D1029091D2029A838983A091D50214
:1002E000B091D602FD0131968C9189878091CD0223
:1002F000A091DF02B091E002882309F417C11B82AC
:10030000AB32B10509F058C09BB18091E102982B46
:1003100098879BB1809589238F838F818C83898572
:1003200087FF02C088858C8358856F8149853C8111
:100330002B8189819A815BB9262F3BB900C046FD8C
:10034000252F6BB900C05BB9362F2BB900C045FD16
:10035000352F6BB900C05BB9262F3BB900C044FDF7
:10036000252F6BB900C05BB9362F2BB900C043FDF8
:10037000352F6BB900C05BB9262F3BB900C042FDD9
:10038000252F6BB900C05BB9362F2BB900C041FDDA
:10039000352F6BB900C05BB9262F3BB900C040FDBB
:1003A000252F6BB901975BB9362F2BB9419147FDCA
:1003B000352F6BB901F6B6C0A532B10509F058C0AA
:1003C00095B18091E102982B988795B1809589230A
:1003D0008F838F818C83898587FF02C088858C837A
:1003E00058856F8149853C812B8189819A8155B9D6
:1003F000262F35B900C046FD252F65B900C055B977
:10040000362F25B900C045FD352F65B900C055B957
:10041000262F35B900C044FD252F65B900C055B958
:10042000362F25B900C043FD352F65B900C055B939
:10043000262F35B900C042FD252F65B900C055B93A
:10044000362F25B900C041FD352F65B900C055B91B
:10045000262F35B900C040FD252F65B9019755B944
:10046000362F25B9419147FD352F65B901F65AC0A0
:10047000989709F08BC098B18091E102982B9887EA
:1004800098B1809589238F838F818C83898587FF9D
:1004900002C088858C8358856F8149853C812B817A
:1004A00089819A8158B9262F38B900C046FD252F79
:1004B00068B900C058B9362F28B900C045FD352F9E
:1004C00068B900C058B9262F38B900C044FD252F9F
:1004D00068B900C058B9362F28B900C043FD352F80
:1004E00068B900C058B9262F38B900C042FD252F81
:1004F00068B900C058B9362F28B900C041FD352F62
:1005000068B900C058B9262F38B900C040FD252F62
:1005100068B9019758B9362F28B9419147FD352F51
:1005200068B901F649873C832B832EC09C9180914A
:10053000E102982B98879C91809589238F838F81E6
:100540008E8388E08D8358856F8149853D812E811A
:1005500089819A815C9347FD252F2C93262F3A950C
:1005600031F0441F6C9300C000C000C0F3CF6C9307
:10057000000038E04191019769F7B093E002A09341
:10058000DF0249873D832E839A83898378940E9472
:10059000030B6093DB027093DC028093DD02909387
:1005A000DE0229960FB6F894DEBF0FBECDBFDF91F5
:1005B000CF911F910F910895682F83EE91E00C94D5
:1005C00075030895CF92DF92EF92FF920F931F93DE
:1005D000CF93DF936C017A018B01C0E0D0E0CE15A0
:1005E000DF0581F0D8016D918D01D601ED91FC916F
:1005F0000190F081E02DC6010995892B11F021961B
:10060000EECF7E01C701DF91CF911F910F91FF9037
:10061000EF90DF90CF900895FC01538D448D252FEE
:1006200030E0842F90E0821B930B541710F0CF968C
:10063000089501970895FC01918D828D981761F0BE
:10064000828DDF01A80FB11D5D968C91928D9F5F09
:100650009F73928F90E008958FEF9FEF0895FC01B4
:10066000918D828D981731F0828DE80FF11D858D67
:1006700090E008958FEF9FEF0895FC01918D228DFA
:10068000892F90E0805C9F4F821B91098F7399277F
:10069000089583EE91E00E943D0321E0892B09F447
:1006A00020E0822F0895FC01848DDF01A80FB11D89
:1006B000A35ABF4F2C91848D90E001968F73992798
:1006C000848FA689B7892C93A089B1898C91837076
:1006D00080648C93938D848D981306C00288F3896F
:1006E000E02D80818F7D80830895EF92FF920F939C
:1006F0001F93CF93DF93EC0181E0888F9B8D8C8DCE
:10070000981305C0E889F989808185FD26C0F62EF9
:100710000B8D10E00F5F1F4F0F731127E02E8C8D94
:10072000E8120CC00FB607FCFACFE889F98980817E
:1007300085FFF5CFCE010E945303F1CF8B8DFE01D3
:10074000E80FF11DE35AFF4FF0829FB7F8940B8F2B
:10075000EA89FB89808180620AC09FB7F894EE899C
:10076000FF896083E889F989808183708064808350
:100770009FBF81E090E0DF91CF911F910F91FF909B
:10078000EF900895CF93DF93EC01888D8823C9F013
:10079000EA89FB89808185FD05C0A889B9898C918A
:1007A00086FD0FC00FB607FCF5CF808185FFF2CF25
:1007B000A889B9898C9185FFEDCFCE010E945303A2
:1007C000E7CFDF91CF91089580E090E0892B29F069
:1007D0000E94490381110C940000089585ED8093D7
:1007E000BC008091BC0084FDFCCF1092C80108952C
:1007F00040916403262F30E0240F311D2132310552
:10080000DCF42091C8012430C9F4FC0180E090E0C0
:10081000861758F4309164032191DC01AC5BBC4F26
:10082000A30FB11D2C930196F3CF80916403680F41
:100830006093640380E0089581E0089582E0089564
:10084000089508950895E091CC018091CB01E817B7
:1008500030F4F0E0EC5DFC4F808190E008958FEF84
:100860009FEF08959091CC018091CB01981750F49F
:10087000E92FF0E0EC5DFC4F208130E09F5F90932A
:10088000CC0102C02FEF3FEFC90108958091CB0149
:1008900090E02091CC01821B91090895CF93DF93C2
:1008A000CB01EA01642F0E94F803CE01DF91CF91C2
:1008B0000895CF93DF931F92CDB7DEB7698361E0D0
:1008C000CE0101960E94F80381E090E00F90DF9145
:1008D000CF910895089580E090E008952FB7F8949F
:1008E0008091AB039091AC03A091AD03B091AE03A6
:1008F0002FBF40911C0350911D0360911E03709106
:100900001F03841B950BA60BB70B81399140A105E2
:10091000B10508F43FC083EA91E00E94CC008091C9
:1009200090028F5F80939002809190028F3010F040
:1009300010929002E091900284E0E89FF00111246F
:10094000EF56FD4F80819181A281B38180938C020B
:1009500090938D02A0938E02B0938F0260919002CB
:1009600080E090E00E94661281E0809330012FB712
:10097000F8948091AB039091AC03A091AD03B0913A
:10098000AE032FBF80931C0390931D03A0931E03FF
:10099000B0931F0308951F920F920FB60F92112468
:1009A0002F933F934F935F936F937F938F939F9377
:1009B000AF93BF93EF93FF93E0910201F091030196
:1009C0000995FF91EF91BF91AF919F918F917F9189
:1009D0006F915F914F913F912F910F900FBE0F90AC
:1009E0001F9018951F920F920FB60F9211242F93FC
:1009F0003F934F935F936F937F938F939F93AF93A7
:100A0000BF93EF93FF93E0910001F09101010995ED
:100A1000FF91EF91BF91AF919F918F917F916F91D6
:100A20005F914F913F912F910F900FBE0F901F90AC
:100A300018951F920F920FB60F9211242F933F9388
:100A40004F935F936F937F938F939F93AF93BF93D6
:100A5000EF93FF9383EE91E00E945303FF91EF9198
:100A6000BF91AF919F918F917F916F915F914F91C6
:100A70003F912F910F900FBE0F901F9018951F92CE
:100A80000F920FB60F9211242F938F939F93EF9392
:100A9000FF93E091F301F091F4018081E091F9017D
:100AA000F091FA0182FD12C090818091FC018F5F6C
:100AB0008F732091FD01821751F0E091FC01F0E06D
:100AC000ED51FE4F958F8093FC0101C08081FF9115
:100AD000EF919F918F912F910F900FBE0F901F90CC
:100AE00018951F920F920FB60F9211242F933F93D8
:100AF0004F935F936F937F938F939F93AF93BF9326
:100B0000EF93FF938091B900887F803609F49CC0F1
:100B100068F5883209F45BC090F4803109F454C060
:100B200038F4882309F4F6C0883009F44DC0F6C0C3
:100B3000883109F44CC0803209F45DC0EFC08034C4
:100B400009F468C048F4803309F455C0883309F0CB
:100B5000E5C080938703D8C0803509F44FC088353D
:100B600009F45DC0883409F0D9C0D6C0883909F4C9
:100B7000C7C0A8F4883709F467C038F4883609F488
:100B800063C0803709F460C0C9C0883809F4B8C0B0
:100B9000803909F45FC0803809F0C0C05BC0803B79
:100BA00009F486C038F4803A09F466C0883A09F43A
:100BB0007FC0B4C0803C09F4A7C0883C09F4A4C03D
:100BC000883B09F48AC0AAC08091AA0310C0909102
:100BD000A9038091A803981770F5E091A90381E01B
:100BE0008E0F8093A903F0E0E857FC4F808180933B
:100BF000BB0085EC86C0809387038EC0E091A9037B
:100C000081E08E0F8093A9038091BB00F0E0E8574C
:100C1000FC4F80839091A9038091A8036EC0E0915E
:100C2000A90381E08E0F8093A9038091BB00F0E0BF
:100C3000E857FC4F80838091C70181116DC081E02E
:100C40008093C60184EA61C083E08093C80110925A
:100C50008603CFCF80918603803208F051C0E091A7
:100C6000860381E08E0F809386038091BB00F0E0C5
:100C7000EA59FC4F8083BDCF85EC8093BC00109275
:100C8000C80180918603803230F4E0918603F0E061
:100C9000EA59FC4F10826091860370E0E091C20136
:100CA000F091C30186E693E009951092860336C061
:100CB00084E08093C8011092650310926403E09170
:100CC000C401F091C501099580916403811105C0AB
:100CD00081E08093640310924403E091650381E016
:100CE0008E0F80936503F0E0EC5BFC4F8081809376
:100CF000BB009091650380916403981708F479CF45
:100D000085E88093BC000AC085EC8093BC001092FB
:100D1000C80104C0109287030E94EE03FF91EF9177
:100D2000BF91AF919F918F917F916F915F914F9103
:100D30003F912F910F900FBE0F901F9018954F92DB
:100D40005F926F927F928F929F92AF92BF92CF925B
:100D5000DF92EF92FF920F931F93CF93DF934B019C
:100D60005C018091200390912103A0912203B09116
:100D7000230388159905AA05BB0509F4D2C08CE3A5
:100D8000C82ED12CE12CF12CC501B401A70196018C
:100D90000E9488126093AF03CA01B901A7019601AE
:100DA0000E9488126093B003C501B40120E13EE0C7
:100DB00040E050E00E948812CA01B90128E130E009
:100DC00040E050E00E9488126093B103C501B40175
:100DD00020E831E541E050E00E94881269017A0183
:100DE000CA01B9016C5F7F4F8F4F9F4F27E030E002
:100DF00040E050E00E9488126F5F6093B203412C84
:100E0000512C320140E004E610E0C0E9D1E0242F8B
:100E100030E02E54384FF901E370FF27309789F402
:100E2000C901B8010E947412892B31F4C901BE01B5
:100E30000E947412892B29F48EE691E0A0E0B0E0C4
:100E400004C08DE691E0A0E0B0E0480E591E6A1E95
:100E50007B1ED301C201AA27BB27C816D906EA0602
:100E6000FB0610F04F5FD3CF4093B503309799F452
:100E7000C90164E670E00E947412892B39F4C9013B
:100E800060E971E00E947412892B29F48EE691E0EA
:100E9000A0E0B0E004C08DE691E0A0E0B0E0481A28
:100EA000590A6A0A7B0AC418D508E608F708C90176
:100EB00064E670E00E947412EC01C90160E971E01F
:100EC0000E947412A3E7B1E020E0213039F430979A
:100ED00049F4209729F4009729F402C04C9103C0EB
:100EE0004DE101C04CE150E060E070E0C416D50671
:100EF000E606F70640F0C41AD50AE60AF70A2F5F9D
:100F000011962C3011F72F5F2093B403C394C09235
:100F1000B3038092200390922103A0922203B09207
:100F20002303DF91CF911F910F91FF90EF90DF90FE
:100F3000CF90BF90AF909F908F907F906F905F9079
:100F40004F900895CF93DF93EC018AE30E94DC0277
:100F5000CA30D1051CF480E30E94DC02BE01DD0F23
:100F6000880B990BDF91CF910C942D09CF93DF93D0
:100F7000EC010A971CF480E30E94DC02BE01DD0F45
:100F8000880B990BDF91CF910C942D09CF93DF93B0
:100F9000C0E0D0E08091CF029091D002C817D9076D
:100FA00030F440E050E0BA01CE010E94DA00219610
:100FB000CE36D10579F7DF91CF910895EF92FF9268
:100FC0000F931F93CF93DF93FC01E0800181C0E07A
:100FD000D0E010E0F12C0C171D07B4F040918C020A
:100FE00050918D0260918E0270918F02CE018E0D14
:100FF0009F1D2091CF023091D0028217930710F4E9
:101000000E94DA002196E7CFDF91CF911F910F91D7
:10101000FF90EF900895833081F028F4813099F0AB
:101020008230A1F008958730A9F08830B9F084307B
:10103000D1F4809180008F7D03C0809180008F77F4
:1010400080938000089584B58F7702C084B58F7D2A
:1010500084BD08958091B0008F7703C08091B00067
:101060008F7D8093B00008952F923F924F925F92B0
:101070006F927F928F929F92AF92BF92CF92DF92A8
:10108000EF92FF920F931F93CF93DF93CDB7DEB70D
:101090002D970FB6F894DEBF0FBECDBF58877A8765
:1010A000242E862E41110CC083942CE0281550F478
:1010B0003FEFC31AD30A332433948824839404C0A3
:1010C000342E02C0332433948A858D87EEE4EC0DF0
:1010D000AE2FB0E020E833E341EE51E00E94E5128C
:1010E0002B013C0122EB37E06D01E4E6F0E000E982
:1010F00011E0C901825B97408C159D05DCF4C901A4
:1011000083709927892B99F4C901BF010E94741239
:10111000892B31F4C901B8010E947412892B39F46A
:10112000A0E84A0EA1E55A1EA1E06A1E711C2F5FBD
:101130003F4FDFCFBEE4CB1AB8EFDB0AC60164E64F
:1011400070E00E9474127C01C60160E971E00E94A7
:1011500074125C0103E711E0E1E0F0E0912C23E080
:10116000C222DD24E815F90534F5E230F10589F4F1
:10117000C114D10471F4E114F10419F4A114B104FF
:1011800041F430E8430E3BE3531E36E2631E711C0C
:101190000EC0D8018C91A82FB0E020E831E541E0E5
:1011A00050E00E94E512460E571E681E791E3196C9
:1011B0000F5F1F4FD7CFBD852B2F30E0A0E1BEE0E2
:1011C0000E94CF12460E571E681E791E088510E039
:1011D000C301B2010E949F068091B2039801281BAF
:1011E0003109C901079667E070E00E947412232D4F
:1011F00030E02150310967E0629FA001639F500DEC
:101200001124DC01A40FB51F20E831E541E050E0D6
:101210000E94F012640D751D861D971D211004C0DB
:1012200060587A43894091092D960FB6F894DEBF35
:101230000FBECDBFDF91CF911F910F91FF90EF9027
:10124000DF90CF90BF90AF909F908F907F906F90E6
:101250005F904F903F902F9008958F929F92AF9202
:10126000BF92CF92DF92EF92FF920F931F93CF9393
:10127000DF93CDB7DEB7A1970FB6F894DEBF0FBEF0
:10128000CDBF6B017C0197FF29C08DE20E94DC027B
:101290008C0122273327A9012C193D094E095F092A
:1012A00019A2CE0181967C019AE0892E912CA12C65
:1012B000B12CCA01B901A50194010E948812605D98
:1012C000F70162937F01211531054105510589F729
:1012D000CF010E94BA00800F911F1DC09B01AC017D
:1012E00019A28E010F5D1F4F8AE0C82ED12CE12C70
:1012F000F12CCA01B901A70196010E948812605D14
:10130000F80162938F01211531054105510589F7D7
:10131000CF010E94BA00A1960FB6F894DEBF0FBEAF
:10132000CDBFDF91CF911F910F91FF90EF90DF9094
:10133000CF90BF90AF909F908F9008958F929F9283
:10134000AF92BF92CF92DF92EF92FF920F931F93D3
:10135000CF93DF936C01E090EC02F090ED020091EE
:10136000EE021091EF022091F0023091F1024091D3
:10137000F2025091F3026091F4027091F5028091B3
:10138000F6029091F7020E943408CCEED2E068A3F6
:1013900079A38AA39BA3E8EFF2E0E080F1800281C9
:1013A00013812481358146815781608571858285CD
:1013B00093850E9434086B017C016CA37DA38EA3EE
:1013C0009FA3AE89BF892CE330E00E94DE1208A102
:1013D00019A12AA13BA148015901861A970AA80A16
:1013E000B90A888E998EAA8EBB8EAA85BB852CE3FE
:1013F00030E00E94DE12C61AD70AE80AF90ACC8E3B
:10140000DD8EEE8EFF8EDF91CF911F910F91FF90B9
:10141000EF90DF90CF90BF90AF909F908F90089506
:10142000CF93DF93282F30E0F901E95FFE4F8491DD
:10143000F901EF53FF4FD491F901E152FF4FC491ED
:10144000CC2391F081110E940B08EC2FF0E0EE0FFD
:10145000FF1FE350FF4FA591B491EC91ED2381E084
:1014600090E021F480E002C080E090E0DF91CF9135
:1014700008951F93CF93DF93282F30E0F901E95FA0
:10148000FE4F8491F901EF53FF4FD491F901E152DE
:10149000FF4FC491CC23C1F0162F81110E940B087D
:1014A000EC2FF0E0EE0FFF1FEB52FF4FA591B49130
:1014B0009FB7F894111104C08C91D095D82302C025
:1014C000EC91DE2BDC939FBFDF91CF911F910895AC
:1014D000EF92FF920F931F93CF93DF93E82EF62E98
:1014E000C7E0D0E0042F10E0B8010C2E02C07595C3
:1014F00067950A94E2F761708E2D0E94390A61E0C7
:101500008F2D0E94390A60E08F2D0E94390A2197A1
:1015100058F7DF91CF911F910F91FF90EF900895B1
:10152000CF93DF9390E0FC01EF53FF4F2491FC0138
:10153000E152FF4F8491882361F190E0880F991F59
:10154000FC01ED50FF4FC591D491FC01EB52FF4FD0
:10155000A591B491611109C09FB7F8948881209535
:1015600082238883EC912E230BC0623061F49FB7F5
:10157000F8948881322F309583238883EC912E2B29
:101580002C939FBF06C08FB7F894E8812E2B288339
:101590008FBFDF91CF91089560E08091E3020E94B8
:1015A000900A61E08091E2020E94390A8091E30290
:1015B0000E94100A0197D1F360E08091E2020C943E
:1015C000390A1F93CF93DF93182FC2EED2E061E068
:1015D00089810E94900A61E089810E94390A61E054
:1015E00088810E94390A60E089810E94390A60E09E
:1015F00088810E94390A412F68818981DF91CF91CA
:101600001F910C94680A3FB7F8948091B7039091AA
:10161000B803A091B903B091BA0326B5A89B05C041
:101620002F3F19F00196A11DB11D3FBFBA2FA92F61
:10163000982F8827820F911DA11DB11DBC01CD01DE
:1016400043E0660F771F881F991F4A95D1F70895C9
:101650001F920F920FB60F9211242F933F938F93E7
:101660009F93AF93BF938091AB039091AC03A091F4
:10167000AD03B091AE033091B60326E0230F2D37B2
:1016800020F40296A11DB11D05C029E8230F039681
:10169000A11DB11D2093B6038093AB039093AC03BF
:1016A000A093AD03B093AE038091B7039091B803BC
:1016B000A091B903B091BA030196A11DB11D809309
:1016C000B7039093B803A093B903B093BA03BF9143
:1016D000AF919F918F913F912F910F900FBE0F90DF
:1016E0001F901895789484B5826084BD84B581601C
:1016F00084BD85B5826085BD85B5816085BD8091DD
:101700006E00816080936E00109281008091810054
:10171000826080938100809181008160809381004C
:10172000809180008160809380008091B10084600E
:101730008093B1008091B00081608093B00080916F
:101740007A00846080937A0080917A00826080932E
:101750007A0080917A008E7F80937A0080917A005F
:10176000806880937A001092C100E091F301F091BB
:10177000F401C2E0C083E091EF01F091F00110822A
:10178000E091F101F091F20188E080831092FB0179
:10179000E091F701F091F80186E08083E091F50196
:1017A000F091F601808180618083E091F501F091F4
:1017B000F601808188608083E091F501F091F60167
:1017C000808180688083E091F501F091F60180814D
:1017D0008F7D80838FE791E00E94CC001092CC0136
:1017E0001092CB011092CA011092C9011092C80147
:1017F000D1E0D093C7011092C60161E082E10E945E
:10180000390A61E083E10E94390A8091B9008E7F34
:101810008093B9008091B9008D7F8093B90080E2F8
:101820008093B80085E48093BC0080E294E09093BC
:10183000C5018093C40181E294E09093C301809339
:10184000C2018091E3028231F1F48091E20283319E
:10185000D1F4D093EB0261E082E10E94390A61E0A9
:1018600083E10E94390A8091B9008E7F8093B9008C
:101870008091B9008D7F8093B900C093B80085E056
:101880008093BC0007C01092EB0261E08091E202FD
:101890000E94900A62E082E00E94900A8EE694E044
:1018A000909301018093000180916900836080938F
:1018B0006900E89A80E090E00E945E1280939002B6
:1018C000809190028F3010F010929002E09190027F
:1018D00024E0E29FF0011124EF56FD4F80819181B9
:1018E000A281B38180938C0290938D02A0938E028B
:1018F000B0938F028091D30287FD08C061E00E94FF
:10190000900A60E08091D3020E94390A81E08093BE
:10191000CE022091D402222339F1C091D502D09178
:10192000D602215051F030E040E050E06FEF7FEF01
:1019300080E090E00E94AA1202C020E030E0FE01A8
:101940004091D1025091D202CF018C1B9D0B841784
:10195000950740F44081429FC001439F900D1124A0
:101960009193EECF1092D4020E94C6078091D502C7
:101970009091D602892B11F00E9446018DE891E0EA
:101980000E94CC0081E0809330015DE6252E332457
:10199000339468EF462E62E0562E7CEE672E72E09E
:1019A000772EE4EE8E2EF4EC9F2E0BEE12E02FB786
:1019B000F8948091AB039091AC03A091AD03B091EA
:1019C000AE032FBF4091DF015091E0016091E10132
:1019D0007091E201841B950BA60BB70B81339547E1
:1019E000A105B10508F0A1C18091300181119DC10F
:1019F00099C1A33008F0D6C2829DB001839D700DBD
:101A0000929D700D1124615973428D5C974096959B
:101A1000879596958795860F971F9C01240F351FF4
:101A2000A8E1B0E00E94CF129B01AC012F0F311D45
:101A3000411D511DACE3B0E00E94E5129B01AC01D9
:101A40002E0F311D411D511D0E94E5129B01AC015D
:101A50002F0D311D411D511D69017A0130E8C31A56
:101A60003CEBD30A32E9E30A37ECF30AC701B601CB
:101A70000E949F06C091B503D0E0CE54D84F60912C
:101A800004037091050380910603909107030E945F
:101A90009F068091B50390E08E54984F8C179D0758
:101AA00059F0C701B6010E949F068091B50390E0EE
:101AB0008E54984F0E949E09C701B6010E949F064E
:101AC000C091B503D0E0CE54D84F6091040370911B
:101AD000050380910603909107030E949F06809161
:101AE000B50390E08E54984F8C179D0759F0C701AD
:101AF000B6010E949F068091B50390E08E54984FE6
:101B00000E949E09409108035091090360910A03C5
:101B100070910B038091040390910503A09106033B
:101B2000B0910703481759076A077B0709F043C2BA
:101B30005092DE014092DD01A0910203B0910303B7
:101B40002CE330E00E94DE12C60ED71EE81EF91EFE
:101B5000C092D901D092DA01E092DB01F092DC016F
:101B6000A090DD01B090DE01C701B6010E949F0682
:101B70008091B10390E00E94B607C701B6010E94B0
:101B80009F068091B00390E00E94A207C701B601B2
:101B90000E949F068091AF0390E00E94A20780E21E
:101BA0000E94DC02C701B6010E949F068091B20329
:101BB000982F990F890FCDECD1E0DE0120E030E0C5
:101BC00090E0FC01E20FF31FE058FF4FE491ED932A
:101BD0002F5F3F4F23303105A1F71092D0018DECDC
:101BE00091E00E94BA0080E20E94DC02C701B601C7
:101BF0000E949F068091B30390E00E94B60780E2A6
:101C00000E94DC02C701B6010E949F062091B40326
:101C100043E0249F9001112480E090E0FC01E20F5A
:101C2000F31FE756FF4FE491E99301968330910546
:101C3000A9F71092D0018DEC91E00E94BA0080E2E9
:101C40000E94DC02C701B6010E949F066091B503A5
:101C500070E06E54784F072E000C880B990B0E9491
:101C60002D0980E20E94DC02C5010E94BA0080EAD0
:101C700091E00E94BA00C090D901D090DA01E090C2
:101C8000DB01F090DC01C701B6010E949F06C09104
:101C9000B103D0E0D093D801C093D701C701B601FA
:101CA0000E949F06E090B003F12C0E94C6078EE2CE
:101CB00091E00E94DE078CE291E00E94DE0755E091
:101CC000E516F1040CF09CC18AE291E00E94DE0767
:101CD000209709F411C2CD30D1050CF02C97FE01EC
:101CE0003197EC30F10508F4E2C18091D502909172
:101CF000D602892B11F00E9446012FB7F8948091EB
:101D0000AB039091AC03A091AD03B091AE032FBF94
:101D10008093DF019093E001A093E101B093E20191
:101D2000109230010E94E40342CE8091EB0288239E
:101D300009F43FC08092BC008091BC0087FFFCCFBB
:101D400080ED8093BB009092BC008091BC0087FF27
:101D5000FCCF1092BB009092BC008091BC0087FF2A
:101D6000FCCF8092BC008091BC0087FFFCCF81ED4E
:101D70008093BB009092BC008091BC0087FFFCCF99
:101D8000E4EEF2E09092BC008091BC0087FFFCCFB3
:101D90008091BB0081930E171F07A1F744E8409381
:101DA000BC008091BC0087FFFCCF54E95093BC007D
:101DB0008BC080ED0E94E10A0E94CC0A61E0809114
:101DC000E3020E94900A40E06091E2028091E30207
:101DD0000E94680A0E94CC0A81ED0E94E10A0E94DA
:101DE000CC0A44EEC42E42E0D42EC0E0D0E060E045
:101DF0008091E3020E94900A37E0E32EF12CB12C8F
:101E000061E08091E2020E94390A8091E3020E941F
:101E1000100A99270E2C01C0880F0A94EAF7B82AF5
:101E200060E08091E2020E94390A81E0E81AF1083C
:101E300038F7F601B1926F0161E08091E302C6309C
:101E4000D10549F00E94900A60E08091E2020E9470
:101E5000390A60E008C00E94900A60E08091E202C6
:101E60000E94390A61E08091E3020E94390A61E030
:101E70008091E2020E94390A60E08091E2020E94B1
:101E8000390A60E08091E3020E94900A2196C730EF
:101E9000D10509F0ACCF61E08091E3020E94900A85
:101EA00060E08091E3020E94390A61E08091E202E1
:101EB0000E94390A61E08091E3020E94390A60E0E1
:101EC0008091E3020E94900A8091E402C82FC69597
:101ED000C695C695CE709C2F990F990FC90F8F701C
:101EE000FC2EF80E8091E502E82FE695E695E69542
:101EF000EE709E2F990F990FE90F8F70E80F809168
:101F0000E602F82FFF7087FF08C085FB882780F95D
:101F10002CE0289FF00D112409C0807386958695CA
:101F20008695982F990F990F890FF80F5091E80215
:101F3000352F3695369536953E70432F440F440F16
:101F4000340F8091E902A82FA695A695A695AE70AC
:101F50009A2F990F990FA90F8F70A80F8091EA02FD
:101F6000982F92959F708F704AE0949F800D112456
:101F700090E08053984F5F70530F452F50E0B0E0D2
:101F80006A2F70E0615071092B2F30E02617370758
:101F90000CF02FCD2D583E4FE9012881420F511DE5
:101FA000BF5FF2CF9C0123703327232B09F024CD90
:101FB0004F5F5F4F21CD84179507A607B70760F4E1
:101FC000C816D906EA06FB0608F4B2CDC416D50633
:101FD000E606F70660F0ACCDC416D506E606F706B1
:101FE00030F0C816D906EA06FB0608F4A1CD7092B7
:101FF000DE016092DD01A091F602B091F702A0CD62
:102000008AE0E816F104ECF09FE0E916F1041CF414
:1020100084E291E01FC0E4E1EE16F1041CF482E2D8
:1020200091E018C0F9E1EF16F1041CF480E291E0B0
:1020300011C02EE1E216F1043CF480E291E00E942E
:10204000DE0788E291E006C033E2E316F1043CF4D7
:102050008EE191E00E94DE0786E291E037CE48E211
:10206000E416F1042CF480E291E00E94DE0715C032
:102070005DE2E516F1041CF480E291E010C082E319
:10208000E816F1041CF482E291E009C097E3E91636
:10209000F1041CF484E291E002C088E291E00E9425
:1020A000DE078CE191E00E94DE07219614CEEC5C05
:1020B000FF4F0C94C9128AE191E020C088E191E0C1
:1020C0001DC086E191E01AC084E191E017C082E171
:1020D00091E014C080E191E011C08EE091E00EC06B
:1020E0008CE091E00BC08AE091E008C088E091E0CC
:1020F00005C086E091E002C084E091E00E94DE0726
:10210000F4CD0F931F93CF93DF93CDB7DEB76897CE
:102110000FB6F894DEBF0FBECDBF1092E60110924D
:10212000E50188EE93E0A0E0B0E08093E7019093B2
:10213000E801A093E901B093EA012BE331E0309389
:10214000E4012093E30125EC30E03093F00120938B
:10215000EF0124EC30E03093F2012093F10120EC08
:1021600030E03093F4012093F30121EC30E0309320
:10217000F6012093F50122EC30E03093F801209332
:10218000F70126EC30E03093FA012093F901109228
:10219000FC011092FD011092FE011092FF011092BD
:1021A0008302109282028093840290938502A0930E
:1021B0008602B09387028DE491E090938102809330
:1021C00080028CE0E7E6F1E0DE011D9601900D92C1
:1021D0008A95E1F78CE0EBE5F1E0DE0111960190E4
:1021E0000D928A95E1F78CE0FE013D96ACEEB2E0EF
:1021F00001900D928A95E1F78CE0FE013196A8EFEF
:10220000B2E001900D928A95E1F782E18093E302BA
:1022100083E18093E2028EED97E090931A0380931E
:10222000190381E08093180380931703109214031D
:10223000109215031092160393E090931B031092D3
:10224000CE021092D4021092DB021092DC021092A5
:10225000DD021092DE028093DA028093D7021092A0
:10226000D80292E09093D9028093CD020AE411E063
:102270001093D2020093D1028AE491E00E940C13E1
:102280009093D6028093D502009769F0FC019801E3
:10229000119221503040E1F78EE690E09093D00209
:1022A0008093CF0208C01092D2021092D1021092F5
:1022B000D0021092CF028CE08093D3028091CE02A4
:1022C000882341F061E08CE00E94900A60E08CE09D
:1022D0000E94390AEBEEF0E0E491F0E0EE0FFF1F10
:1022E000EB52FF4F859194919093E0028093DF022F
:1022F000EDECF0E0E491E093E10280E09FE7AFE7EE
:10230000B0E08093910290939202A0939302B093D5
:10231000940280E09AEFAAEFB0E080939502909348
:102320009602A0939702B09398028FE790E0DC01A9
:102330008093990290939A02A0939B02B0939C027F
:102340008AEF90E0DC0180939D0290939E02A0931F
:102350009F02B093A0028FE79FE7A0E0B0E08093D8
:10236000A1029093A202A093A302B093A4028AEFC9
:102370009AEFA0E0B0E08093A5029093A602A0930C
:10238000A702B093A80280E090E0AFE7B0E08093AE
:10239000A9029093AA02A093AB02B093AC0280E092
:1023A00090E0AFEFB0E08093AD029093AE02A093C7
:1023B000AF02B093B00280E09FE7A0E0B0E080936E
:1023C000B1029093B202A093B302B093B40280E042
:1023D0009AEFA0E0B0E08093B5029093B602A0938C
:1023E000B702B093B8028FE790E0A0E0B0E080932E
:1023F000B9029093BA02A093BB02B093BC028FEFD4
:1024000090E0A0E0B0E08093BD029093BE02A09364
:10241000BF02B093C0028FE79FE7AFE7B0E08093C1
:10242000C1029093C202A093C302B093C4028AEF88
:102430009AEFAAEFB0E08093C5029093C602A093F2
:10244000C702B093C80280E094E6AAEFB0E08093A0
:10245000C9029093CA02A093CB02B093CC02E09140
:10246000900234E0E39FF0011124EF56FD4F80818C
:102470009181A281B38180938C0290938D02A0936D
:102480008E02B0938F0268960FB6F894DEBF0FBE2F
:10249000CDBFDF91CF911F910F9108958091D5020B
:1024A0009091D602009711F00E94A4138091D3025C
:1024B00087FD03C060E00C94900A0895F999FECF5F
:1024C00092BD81BDF89A992780B50895262FF99974
:1024D000FECF1FBA92BD81BD20BD0FB6F894FA9A07
:1024E000F99A0FBE0196089597FB072E16F40094F3
:1024F00007D077FD09D00E94F81207FC05D03EF402
:10250000909581959F4F0895709561957F4F08959F
:10251000A1E21A2EAA1BBB1BFD010DC0AA1FBB1FE7
:10252000EE1FFF1FA217B307E407F50720F0A21B59
:10253000B30BE40BF50B661F771F881F991F1A94C6
:1025400069F760957095809590959B01AC01BD01F0
:10255000CF010895052E97FB1EF400940E94C1122E
:1025600057FD07D00E94881207FC03D04EF40C944C
:10257000C11250954095309521953F4F4F4F5F4F79
:10258000089590958095709561957F4F8F4F9F4FDF
:102590000895EE0FFF1F0590F491E02D0994A29F7E
:1025A000B001B39FC001A39F700D811D1124911D27
:1025B000B29F700D811D1124911D08950E94CF12AC
:1025C000B7FF0895821B930B08950E94CF12A59F19
:1025D000900DB49F900DA49F800D911D112408951E
:1025E000B7FF0C94E5120E94E512821B930B08952D
:1025F000AA1BBB1B51E107C0AA1FBB1FA617B70729
:1026000010F0A61BB70B881F991F5A95A9F7809544
:102610009095BC01CD0108950F931F93CF93DF9345
:102620008230910510F482E090E0E091BD03F091DA
:10263000BE0320E030E0A0E0B0E0309719F1408127
:1026400051810281138148175907C8F084179507F3
:1026500069F4109731F012960C93129713961C930D
:1026600027C00093BD031093BE0322C0211531057E
:1026700019F04217530718F49A01BD01EF01DF0169
:10268000F801DBCF21153105F9F0281B390B243077
:10269000310580F48A819B816115710521F0FB0170
:1026A0009383828304C09093BE038093BD03FE0195
:1026B000329644C0FE01E20FF31F819391932250A2
:1026C0003109398328833AC02091BB033091BC0380
:1026D000232B41F420913301309134013093BC031A
:1026E0002093BB0320913101309132012115310536
:1026F00041F42DB73EB74091350150913601241B6E
:10270000350BE091BB03F091BC03E217F307A0F493
:102710002E1B3F0B2817390778F0AC014E5F5F4F37
:102720002417350748F04E0F5F1F5093BC034093AA
:10273000BB038193919302C0E0E0F0E0CF01DF9111
:10274000CF911F910F910895CF93DF93009709F4D4
:1027500081C0FC01329713821282A091BD03B09117
:10276000BE03109781F420813181820F931F209145
:10277000BB033091BC032817390751F5F093BC0314
:10278000E093BB0367C0ED0120E030E0CE17DF0728
:1027900040F44A815B819E0141155105F1F0EA0147
:1027A000F5CFD383C28340815181840F951FC81711
:1027B000D90759F488819981840F951F02969183D6
:1027C00080838A819B81938382832115310529F43B
:1027D000F093BE03E093BD033DC0E901FB83EA83B0
:1027E00049915991C40FD51FEC17FD0761F4808101
:1027F0009181840F951F0296E901998388838281D4
:1028000093819B838A83E0E0F0E012968D919C9106
:102810001397009719F0FD01DC01F7CF8D919C9182
:1028200011979D012E5F3F4F820F931F2091BB0395
:102830003091BC032817390769F4309729F41092B6
:10284000BE031092BD0302C013821282B093BC0378
:10285000A093BB03DF91CF91089510E0CFE8D0E0C3
:1028600004C0FE010E94C9122196C039D107C9F7E0
:04287000F894FFCF0A
:10287400E102E1021605100508021D030B043C04E5
:102884002902250321032C043102340242014903A5
:102894004D055B06450237035403000566016301D9
:1028A400010000BF038000000000007503E2020C79
:1028B40003C2033D031B032F030000000059044E11
:1028C400046B0422044604320423044345540000E8
:1028D4000000010A033C0043455354000000010377
:1028E4000278001F1C1F1E1F1E1F1F1E1F1E1F53AA
:1028F400746172696E672075702E2E2E004E656F9E
:10290400506978656C2068617320626567756E0034
:102914000D0A002B2B2B20436F6C6F7572204275B0
:1029240074746F6E2050726573736564202B2B2B47
:022934000000A1
:00000001FF
